{
	"event-organization/Event.sol": {
		"EventContract": {
			"abi": [
				{
					"inputs": [
						{
							"internalType": "uint256",
							"name": "id",
							"type": "uint256"
						},
						{
							"internalType": "uint256",
							"name": "quantity",
							"type": "uint256"
						}
					],
					"name": "buyTickets",
					"outputs": [],
					"stateMutability": "payable",
					"type": "function"
				},
				{
					"inputs": [
						{
							"internalType": "string",
							"name": "eventName",
							"type": "string"
						},
						{
							"internalType": "uint256",
							"name": "date",
							"type": "uint256"
						},
						{
							"internalType": "uint256",
							"name": "ticketPrice",
							"type": "uint256"
						},
						{
							"internalType": "uint256",
							"name": "totalTickets",
							"type": "uint256"
						}
					],
					"name": "createEvent",
					"outputs": [],
					"stateMutability": "nonpayable",
					"type": "function"
				},
				{
					"inputs": [
						{
							"internalType": "uint256",
							"name": "",
							"type": "uint256"
						}
					],
					"name": "events",
					"outputs": [
						{
							"internalType": "address",
							"name": "organizer",
							"type": "address"
						},
						{
							"internalType": "string",
							"name": "eventName",
							"type": "string"
						},
						{
							"internalType": "uint256",
							"name": "date",
							"type": "uint256"
						},
						{
							"internalType": "uint256",
							"name": "ticketPrice",
							"type": "uint256"
						},
						{
							"internalType": "uint256",
							"name": "totalTickets",
							"type": "uint256"
						},
						{
							"internalType": "uint256",
							"name": "remainingTickets",
							"type": "uint256"
						}
					],
					"stateMutability": "view",
					"type": "function"
				},
				{
					"inputs": [],
					"name": "nextId",
					"outputs": [
						{
							"internalType": "uint256",
							"name": "",
							"type": "uint256"
						}
					],
					"stateMutability": "view",
					"type": "function"
				},
				{
					"inputs": [
						{
							"internalType": "address",
							"name": "",
							"type": "address"
						},
						{
							"internalType": "uint256",
							"name": "",
							"type": "uint256"
						}
					],
					"name": "tickets",
					"outputs": [
						{
							"internalType": "uint256",
							"name": "",
							"type": "uint256"
						}
					],
					"stateMutability": "view",
					"type": "function"
				},
				{
					"inputs": [
						{
							"internalType": "uint256",
							"name": "eventId",
							"type": "uint256"
						},
						{
							"internalType": "uint256",
							"name": "quantity",
							"type": "uint256"
						},
						{
							"internalType": "address",
							"name": "to",
							"type": "address"
						}
					],
					"name": "transferTickets",
					"outputs": [],
					"stateMutability": "nonpayable",
					"type": "function"
				}
			],
			"devdoc": {
				"kind": "dev",
				"methods": {},
				"version": 1
			},
			"evm": {
				"assembly": "    /* \"event-organization/Event.sol\":60:1874  contract EventContract {... */\n  mstore(0x40, 0x80)\n  callvalue\n  dup1\n  iszero\n  tag_1\n  jumpi\n  0x00\n  dup1\n  revert\ntag_1:\n  pop\n  dataSize(sub_0)\n  dup1\n  dataOffset(sub_0)\n  0x00\n  codecopy\n  0x00\n  return\nstop\n\nsub_0: assembly {\n        /* \"event-organization/Event.sol\":60:1874  contract EventContract {... */\n      mstore(0x40, 0x80)\n      jumpi(tag_1, lt(calldatasize, 0x04))\n      shr(0xe0, calldataload(0x00))\n      dup1\n      0x0374ab0b\n      eq\n      tag_2\n      jumpi\n      dup1\n      0x0b791430\n      eq\n      tag_3\n      jumpi\n      dup1\n      0x3d23eed9\n      eq\n      tag_4\n      jumpi\n      dup1\n      0x61b8ce8c\n      eq\n      tag_5\n      jumpi\n      dup1\n      0x8627df46\n      eq\n      tag_6\n      jumpi\n      dup1\n      0xdae7a13c\n      eq\n      tag_7\n      jumpi\n    tag_1:\n      0x00\n      dup1\n      revert\n        /* \"event-organization/Event.sol\":410:895  function createEvent(string memory eventName, uint date, uint ticketPrice, uint totalTickets) public {... */\n    tag_2:\n      callvalue\n      dup1\n      iszero\n      tag_8\n      jumpi\n      0x00\n      dup1\n      revert\n    tag_8:\n      pop\n      tag_9\n      0x04\n      dup1\n      calldatasize\n      sub\n      dup2\n      add\n      swap1\n      tag_10\n      swap2\n      swap1\n      tag_11\n      jump\t// in\n    tag_10:\n      tag_12\n      jump\t// in\n    tag_9:\n      stop\n        /* \"event-organization/Event.sol\":282:316  mapping(uint=>Event) public events */\n    tag_3:\n      callvalue\n      dup1\n      iszero\n      tag_13\n      jumpi\n      0x00\n      dup1\n      revert\n    tag_13:\n      pop\n      tag_14\n      0x04\n      dup1\n      calldatasize\n      sub\n      dup2\n      add\n      swap1\n      tag_15\n      swap2\n      swap1\n      tag_16\n      jump\t// in\n    tag_15:\n      tag_17\n      jump\t// in\n    tag_14:\n      mload(0x40)\n      tag_18\n      swap7\n      swap6\n      swap5\n      swap4\n      swap3\n      swap2\n      swap1\n      tag_19\n      jump\t// in\n    tag_18:\n      mload(0x40)\n      dup1\n      swap2\n      sub\n      swap1\n      return\n        /* \"event-organization/Event.sol\":1432:1871  function transferTickets(uint eventId, uint quantity, address to) public {... */\n    tag_4:\n      callvalue\n      dup1\n      iszero\n      tag_20\n      jumpi\n      0x00\n      dup1\n      revert\n    tag_20:\n      pop\n      tag_21\n      0x04\n      dup1\n      calldatasize\n      sub\n      dup2\n      add\n      swap1\n      tag_22\n      swap2\n      swap1\n      tag_23\n      jump\t// in\n    tag_22:\n      tag_24\n      jump\t// in\n    tag_21:\n      stop\n        /* \"event-organization/Event.sol\":383:401  uint public nextId */\n    tag_5:\n      callvalue\n      dup1\n      iszero\n      tag_25\n      jumpi\n      0x00\n      dup1\n      revert\n    tag_25:\n      pop\n      tag_26\n      tag_27\n      jump\t// in\n    tag_26:\n      mload(0x40)\n      tag_28\n      swap2\n      swap1\n      tag_29\n      jump\t// in\n    tag_28:\n      mload(0x40)\n      dup1\n      swap2\n      sub\n      swap1\n      return\n        /* \"event-organization/Event.sol\":903:1424  function buyTickets(uint id, uint quantity) public payable {... */\n    tag_6:\n      tag_30\n      0x04\n      dup1\n      calldatasize\n      sub\n      dup2\n      add\n      swap1\n      tag_31\n      swap2\n      swap1\n      tag_32\n      jump\t// in\n    tag_31:\n      tag_33\n      jump\t// in\n    tag_30:\n      stop\n        /* \"event-organization/Event.sol\":323:376  mapping(address=>mapping (uint=>uint)) public tickets */\n    tag_7:\n      callvalue\n      dup1\n      iszero\n      tag_34\n      jumpi\n      0x00\n      dup1\n      revert\n    tag_34:\n      pop\n      tag_35\n      0x04\n      dup1\n      calldatasize\n      sub\n      dup2\n      add\n      swap1\n      tag_36\n      swap2\n      swap1\n      tag_37\n      jump\t// in\n    tag_36:\n      tag_38\n      jump\t// in\n    tag_35:\n      mload(0x40)\n      tag_39\n      swap2\n      swap1\n      tag_29\n      jump\t// in\n    tag_39:\n      mload(0x40)\n      dup1\n      swap2\n      sub\n      swap1\n      return\n        /* \"event-organization/Event.sol\":410:895  function createEvent(string memory eventName, uint date, uint ticketPrice, uint totalTickets) public {... */\n    tag_12:\n        /* \"event-organization/Event.sol\":535:550  block.timestamp */\n      timestamp\n        /* \"event-organization/Event.sol\":530:534  date */\n      dup4\n        /* \"event-organization/Event.sol\":530:550  date>block.timestamp */\n      gt\n        /* \"event-organization/Event.sol\":522:598  require(date>block.timestamp, \"Please select a future date for your event!\") */\n      tag_41\n      jumpi\n      mload(0x40)\n      0x08c379a000000000000000000000000000000000000000000000000000000000\n      dup2\n      mstore\n      0x04\n      add\n      tag_42\n      swap1\n      tag_43\n      jump\t// in\n    tag_42:\n      mload(0x40)\n      dup1\n      swap2\n      sub\n      swap1\n      revert\n    tag_41:\n        /* \"event-organization/Event.sol\":630:632  10 */\n      0x0a\n        /* \"event-organization/Event.sol\":617:629  totalTickets */\n      dup2\n        /* \"event-organization/Event.sol\":617:632  totalTickets>10 */\n      gt\n        /* \"event-organization/Event.sol\":609:670  require(totalTickets>10, \"Select a valid number of tickets!\") */\n      tag_44\n      jumpi\n      mload(0x40)\n      0x08c379a000000000000000000000000000000000000000000000000000000000\n      dup2\n      mstore\n      0x04\n      add\n      tag_45\n      swap1\n      tag_46\n      jump\t// in\n    tag_45:\n      mload(0x40)\n      dup1\n      swap2\n      sub\n      swap1\n      revert\n    tag_44:\n        /* \"event-organization/Event.sol\":713:714  3 */\n      0x03\n        /* \"event-organization/Event.sol\":695:704  eventName */\n      dup5\n        /* \"event-organization/Event.sol\":689:712  bytes(eventName).length */\n      mload\n        /* \"event-organization/Event.sol\":689:714  bytes(eventName).length>3 */\n      gt\n        /* \"event-organization/Event.sol\":681:765  require(bytes(eventName).length>3, \"Event name should have more than 3 characters!\") */\n      tag_47\n      jumpi\n      mload(0x40)\n      0x08c379a000000000000000000000000000000000000000000000000000000000\n      dup2\n      mstore\n      0x04\n      add\n      tag_48\n      swap1\n      tag_49\n      jump\t// in\n    tag_48:\n      mload(0x40)\n      dup1\n      swap2\n      sub\n      swap1\n      revert\n    tag_47:\n        /* \"event-organization/Event.sol\":793:868  Event(msg.sender, eventName, date, ticketPrice, totalTickets, totalTickets) */\n      mload(0x40)\n      dup1\n      0xc0\n      add\n      0x40\n      mstore\n      dup1\n        /* \"event-organization/Event.sol\":799:809  msg.sender */\n      caller\n        /* \"event-organization/Event.sol\":793:868  Event(msg.sender, eventName, date, ticketPrice, totalTickets, totalTickets) */\n      0xffffffffffffffffffffffffffffffffffffffff\n      and\n      dup2\n      mstore\n      0x20\n      add\n        /* \"event-organization/Event.sol\":811:820  eventName */\n      dup6\n        /* \"event-organization/Event.sol\":793:868  Event(msg.sender, eventName, date, ticketPrice, totalTickets, totalTickets) */\n      dup2\n      mstore\n      0x20\n      add\n        /* \"event-organization/Event.sol\":822:826  date */\n      dup5\n        /* \"event-organization/Event.sol\":793:868  Event(msg.sender, eventName, date, ticketPrice, totalTickets, totalTickets) */\n      dup2\n      mstore\n      0x20\n      add\n        /* \"event-organization/Event.sol\":828:839  ticketPrice */\n      dup4\n        /* \"event-organization/Event.sol\":793:868  Event(msg.sender, eventName, date, ticketPrice, totalTickets, totalTickets) */\n      dup2\n      mstore\n      0x20\n      add\n        /* \"event-organization/Event.sol\":841:853  totalTickets */\n      dup3\n        /* \"event-organization/Event.sol\":793:868  Event(msg.sender, eventName, date, ticketPrice, totalTickets, totalTickets) */\n      dup2\n      mstore\n      0x20\n      add\n        /* \"event-organization/Event.sol\":855:867  totalTickets */\n      dup3\n        /* \"event-organization/Event.sol\":793:868  Event(msg.sender, eventName, date, ticketPrice, totalTickets, totalTickets) */\n      dup2\n      mstore\n      pop\n        /* \"event-organization/Event.sol\":776:782  events */\n      0x00\n        /* \"event-organization/Event.sol\":776:790  events[nextId] */\n      dup1\n        /* \"event-organization/Event.sol\":783:789  nextId */\n      sload(0x02)\n        /* \"event-organization/Event.sol\":776:790  events[nextId] */\n      dup2\n      mstore\n      0x20\n      add\n      swap1\n      dup2\n      mstore\n      0x20\n      add\n      0x00\n      keccak256\n        /* \"event-organization/Event.sol\":776:868  events[nextId] = Event(msg.sender, eventName, date, ticketPrice, totalTickets, totalTickets) */\n      0x00\n      dup3\n      add\n      mload\n      dup2\n      0x00\n      add\n      exp(0x0100, 0x00)\n      dup2\n      sload\n      dup2\n      0xffffffffffffffffffffffffffffffffffffffff\n      mul\n      not\n      and\n      swap1\n      dup4\n      0xffffffffffffffffffffffffffffffffffffffff\n      and\n      mul\n      or\n      swap1\n      sstore\n      pop\n      0x20\n      dup3\n      add\n      mload\n      dup2\n      0x01\n      add\n      swap1\n      dup2\n      tag_50\n      swap2\n      swap1\n      tag_51\n      jump\t// in\n    tag_50:\n      pop\n      0x40\n      dup3\n      add\n      mload\n      dup2\n      0x02\n      add\n      sstore\n      0x60\n      dup3\n      add\n      mload\n      dup2\n      0x03\n      add\n      sstore\n      0x80\n      dup3\n      add\n      mload\n      dup2\n      0x04\n      add\n      sstore\n      0xa0\n      dup3\n      add\n      mload\n      dup2\n      0x05\n      add\n      sstore\n      swap1\n      pop\n      pop\n        /* \"event-organization/Event.sol\":879:885  nextId */\n      0x02\n      0x00\n        /* \"event-organization/Event.sol\":879:887  nextId++ */\n      dup2\n      sload\n      dup1\n      swap3\n      swap2\n      swap1\n      tag_52\n      swap1\n      tag_53\n      jump\t// in\n    tag_52:\n      swap2\n      swap1\n      pop\n      sstore\n      pop\n        /* \"event-organization/Event.sol\":410:895  function createEvent(string memory eventName, uint date, uint ticketPrice, uint totalTickets) public {... */\n      pop\n      pop\n      pop\n      pop\n      jump\t// out\n        /* \"event-organization/Event.sol\":282:316  mapping(uint=>Event) public events */\n    tag_17:\n      mstore(0x20, 0x00)\n      dup1\n      0x00\n      mstore\n      keccak256(0x00, 0x40)\n      0x00\n      swap2\n      pop\n      swap1\n      pop\n      dup1\n      0x00\n      add\n      0x00\n      swap1\n      sload\n      swap1\n      0x0100\n      exp\n      swap1\n      div\n      0xffffffffffffffffffffffffffffffffffffffff\n      and\n      swap1\n      dup1\n      0x01\n      add\n      dup1\n      sload\n      tag_54\n      swap1\n      tag_55\n      jump\t// in\n    tag_54:\n      dup1\n      0x1f\n      add\n      0x20\n      dup1\n      swap2\n      div\n      mul\n      0x20\n      add\n      mload(0x40)\n      swap1\n      dup2\n      add\n      0x40\n      mstore\n      dup1\n      swap3\n      swap2\n      swap1\n      dup2\n      dup2\n      mstore\n      0x20\n      add\n      dup3\n      dup1\n      sload\n      tag_56\n      swap1\n      tag_55\n      jump\t// in\n    tag_56:\n      dup1\n      iszero\n      tag_57\n      jumpi\n      dup1\n      0x1f\n      lt\n      tag_58\n      jumpi\n      0x0100\n      dup1\n      dup4\n      sload\n      div\n      mul\n      dup4\n      mstore\n      swap2\n      0x20\n      add\n      swap2\n      jump(tag_57)\n    tag_58:\n      dup3\n      add\n      swap2\n      swap1\n      0x00\n      mstore\n      keccak256(0x00, 0x20)\n      swap1\n    tag_59:\n      dup2\n      sload\n      dup2\n      mstore\n      swap1\n      0x01\n      add\n      swap1\n      0x20\n      add\n      dup1\n      dup4\n      gt\n      tag_59\n      jumpi\n      dup3\n      swap1\n      sub\n      0x1f\n      and\n      dup3\n      add\n      swap2\n    tag_57:\n      pop\n      pop\n      pop\n      pop\n      pop\n      swap1\n      dup1\n      0x02\n      add\n      sload\n      swap1\n      dup1\n      0x03\n      add\n      sload\n      swap1\n      dup1\n      0x04\n      add\n      sload\n      swap1\n      dup1\n      0x05\n      add\n      sload\n      swap1\n      pop\n      dup7\n      jump\t// out\n        /* \"event-organization/Event.sol\":1432:1871  function transferTickets(uint eventId, uint quantity, address to) public {... */\n    tag_24:\n        /* \"event-organization/Event.sol\":1548:1549  0 */\n      0x00\n        /* \"event-organization/Event.sol\":1524:1530  events */\n      dup1\n        /* \"event-organization/Event.sol\":1524:1539  events[eventId] */\n      0x00\n        /* \"event-organization/Event.sol\":1531:1538  eventId */\n      dup6\n        /* \"event-organization/Event.sol\":1524:1539  events[eventId] */\n      dup2\n      mstore\n      0x20\n      add\n      swap1\n      dup2\n      mstore\n      0x20\n      add\n      0x00\n      keccak256\n        /* \"event-organization/Event.sol\":1524:1544  events[eventId].date */\n      0x02\n      add\n      sload\n        /* \"event-organization/Event.sol\":1524:1549  events[eventId].date != 0 */\n      sub\n        /* \"event-organization/Event.sol\":1516:1580  require(events[eventId].date != 0, \"This event does not exits!\") */\n      tag_61\n      jumpi\n      mload(0x40)\n      0x08c379a000000000000000000000000000000000000000000000000000000000\n      dup2\n      mstore\n      0x04\n      add\n      tag_62\n      swap1\n      tag_63\n      jump\t// in\n    tag_62:\n      mload(0x40)\n      dup1\n      swap2\n      sub\n      swap1\n      revert\n    tag_61:\n        /* \"event-organization/Event.sol\":1620:1635  block.timestamp */\n      timestamp\n        /* \"event-organization/Event.sol\":1599:1605  events */\n      0x00\n        /* \"event-organization/Event.sol\":1599:1614  events[eventId] */\n      dup1\n        /* \"event-organization/Event.sol\":1606:1613  eventId */\n      dup6\n        /* \"event-organization/Event.sol\":1599:1614  events[eventId] */\n      dup2\n      mstore\n      0x20\n      add\n      swap1\n      dup2\n      mstore\n      0x20\n      add\n      0x00\n      keccak256\n        /* \"event-organization/Event.sol\":1599:1619  events[eventId].date */\n      0x02\n      add\n      sload\n        /* \"event-organization/Event.sol\":1599:1635  events[eventId].date>block.timestamp */\n      gt\n        /* \"event-organization/Event.sol\":1591:1668  require(events[eventId].date>block.timestamp, \"Sorry! This event has ended!\") */\n      tag_64\n      jumpi\n      mload(0x40)\n      0x08c379a000000000000000000000000000000000000000000000000000000000\n      dup2\n      mstore\n      0x04\n      add\n      tag_65\n      swap1\n      tag_66\n      jump\t// in\n    tag_65:\n      mload(0x40)\n      dup1\n      swap2\n      sub\n      swap1\n      revert\n    tag_64:\n        /* \"event-organization/Event.sol\":1717:1725  quantity */\n      dup2\n        /* \"event-organization/Event.sol\":1687:1694  tickets */\n      0x01\n        /* \"event-organization/Event.sol\":1687:1706  tickets[msg.sender] */\n      0x00\n        /* \"event-organization/Event.sol\":1695:1705  msg.sender */\n      caller\n        /* \"event-organization/Event.sol\":1687:1706  tickets[msg.sender] */\n      0xffffffffffffffffffffffffffffffffffffffff\n      and\n      0xffffffffffffffffffffffffffffffffffffffff\n      and\n      dup2\n      mstore\n      0x20\n      add\n      swap1\n      dup2\n      mstore\n      0x20\n      add\n      0x00\n      keccak256\n        /* \"event-organization/Event.sol\":1687:1715  tickets[msg.sender][eventId] */\n      0x00\n        /* \"event-organization/Event.sol\":1707:1714  eventId */\n      dup6\n        /* \"event-organization/Event.sol\":1687:1715  tickets[msg.sender][eventId] */\n      dup2\n      mstore\n      0x20\n      add\n      swap1\n      dup2\n      mstore\n      0x20\n      add\n      0x00\n      keccak256\n      sload\n        /* \"event-organization/Event.sol\":1687:1725  tickets[msg.sender][eventId]>=quantity */\n      lt\n      iszero\n        /* \"event-organization/Event.sol\":1679:1773  require(tickets[msg.sender][eventId]>=quantity, \"You do not have enough tickets to transfer!\") */\n      tag_67\n      jumpi\n      mload(0x40)\n      0x08c379a000000000000000000000000000000000000000000000000000000000\n      dup2\n      mstore\n      0x04\n      add\n      tag_68\n      swap1\n      tag_69\n      jump\t// in\n    tag_68:\n      mload(0x40)\n      dup1\n      swap2\n      sub\n      swap1\n      revert\n    tag_67:\n        /* \"event-organization/Event.sol\":1814:1822  quantity */\n      dup2\n        /* \"event-organization/Event.sol\":1784:1791  tickets */\n      0x01\n        /* \"event-organization/Event.sol\":1784:1803  tickets[msg.sender] */\n      0x00\n        /* \"event-organization/Event.sol\":1792:1802  msg.sender */\n      caller\n        /* \"event-organization/Event.sol\":1784:1803  tickets[msg.sender] */\n      0xffffffffffffffffffffffffffffffffffffffff\n      and\n      0xffffffffffffffffffffffffffffffffffffffff\n      and\n      dup2\n      mstore\n      0x20\n      add\n      swap1\n      dup2\n      mstore\n      0x20\n      add\n      0x00\n      keccak256\n        /* \"event-organization/Event.sol\":1784:1812  tickets[msg.sender][eventId] */\n      0x00\n        /* \"event-organization/Event.sol\":1804:1811  eventId */\n      dup6\n        /* \"event-organization/Event.sol\":1784:1812  tickets[msg.sender][eventId] */\n      dup2\n      mstore\n      0x20\n      add\n      swap1\n      dup2\n      mstore\n      0x20\n      add\n      0x00\n      keccak256\n      0x00\n        /* \"event-organization/Event.sol\":1784:1822  tickets[msg.sender][eventId]-=quantity */\n      dup3\n      dup3\n      sload\n      tag_70\n      swap2\n      swap1\n      tag_71\n      jump\t// in\n    tag_70:\n      swap3\n      pop\n      pop\n      dup2\n      swap1\n      sstore\n      pop\n        /* \"event-organization/Event.sol\":1855:1863  quantity */\n      dup2\n        /* \"event-organization/Event.sol\":1833:1840  tickets */\n      0x01\n        /* \"event-organization/Event.sol\":1833:1844  tickets[to] */\n      0x00\n        /* \"event-organization/Event.sol\":1841:1843  to */\n      dup4\n        /* \"event-organization/Event.sol\":1833:1844  tickets[to] */\n      0xffffffffffffffffffffffffffffffffffffffff\n      and\n      0xffffffffffffffffffffffffffffffffffffffff\n      and\n      dup2\n      mstore\n      0x20\n      add\n      swap1\n      dup2\n      mstore\n      0x20\n      add\n      0x00\n      keccak256\n        /* \"event-organization/Event.sol\":1833:1853  tickets[to][eventId] */\n      0x00\n        /* \"event-organization/Event.sol\":1845:1852  eventId */\n      dup6\n        /* \"event-organization/Event.sol\":1833:1853  tickets[to][eventId] */\n      dup2\n      mstore\n      0x20\n      add\n      swap1\n      dup2\n      mstore\n      0x20\n      add\n      0x00\n      keccak256\n      0x00\n        /* \"event-organization/Event.sol\":1833:1863  tickets[to][eventId]+=quantity */\n      dup3\n      dup3\n      sload\n      tag_72\n      swap2\n      swap1\n      tag_73\n      jump\t// in\n    tag_72:\n      swap3\n      pop\n      pop\n      dup2\n      swap1\n      sstore\n      pop\n        /* \"event-organization/Event.sol\":1432:1871  function transferTickets(uint eventId, uint quantity, address to) public {... */\n      pop\n      pop\n      pop\n      jump\t// out\n        /* \"event-organization/Event.sol\":383:401  uint public nextId */\n    tag_27:\n      sload(0x02)\n      dup2\n      jump\t// out\n        /* \"event-organization/Event.sol\":903:1424  function buyTickets(uint id, uint quantity) public payable {... */\n    tag_33:\n        /* \"event-organization/Event.sol\":1000:1001  0 */\n      0x00\n        /* \"event-organization/Event.sol\":981:987  events */\n      dup1\n        /* \"event-organization/Event.sol\":981:991  events[id] */\n      0x00\n        /* \"event-organization/Event.sol\":988:990  id */\n      dup5\n        /* \"event-organization/Event.sol\":981:991  events[id] */\n      dup2\n      mstore\n      0x20\n      add\n      swap1\n      dup2\n      mstore\n      0x20\n      add\n      0x00\n      keccak256\n        /* \"event-organization/Event.sol\":981:996  events[id].date */\n      0x02\n      add\n      sload\n        /* \"event-organization/Event.sol\":981:1001  events[id].date != 0 */\n      sub\n        /* \"event-organization/Event.sol\":973:1032  require(events[id].date != 0, \"This event does not exits!\") */\n      tag_75\n      jumpi\n      mload(0x40)\n      0x08c379a000000000000000000000000000000000000000000000000000000000\n      dup2\n      mstore\n      0x04\n      add\n      tag_76\n      swap1\n      tag_63\n      jump\t// in\n    tag_76:\n      mload(0x40)\n      dup1\n      swap2\n      sub\n      swap1\n      revert\n    tag_75:\n        /* \"event-organization/Event.sol\":1067:1082  block.timestamp */\n      timestamp\n        /* \"event-organization/Event.sol\":1051:1057  events */\n      0x00\n        /* \"event-organization/Event.sol\":1051:1061  events[id] */\n      dup1\n        /* \"event-organization/Event.sol\":1058:1060  id */\n      dup5\n        /* \"event-organization/Event.sol\":1051:1061  events[id] */\n      dup2\n      mstore\n      0x20\n      add\n      swap1\n      dup2\n      mstore\n      0x20\n      add\n      0x00\n      keccak256\n        /* \"event-organization/Event.sol\":1051:1066  events[id].date */\n      0x02\n      add\n      sload\n        /* \"event-organization/Event.sol\":1051:1082  events[id].date>block.timestamp */\n      gt\n        /* \"event-organization/Event.sol\":1043:1115  require(events[id].date>block.timestamp, \"Sorry! This event has ended!\") */\n      tag_77\n      jumpi\n      mload(0x40)\n      0x08c379a000000000000000000000000000000000000000000000000000000000\n      dup2\n      mstore\n      0x04\n      add\n      tag_78\n      swap1\n      tag_66\n      jump\t// in\n    tag_78:\n      mload(0x40)\n      dup1\n      swap2\n      sub\n      swap1\n      revert\n    tag_77:\n        /* \"event-organization/Event.sol\":1126:1146  Event storage _event */\n      0x00\n        /* \"event-organization/Event.sol\":1149:1155  events */\n      dup1\n        /* \"event-organization/Event.sol\":1149:1159  events[id] */\n      0x00\n        /* \"event-organization/Event.sol\":1156:1158  id */\n      dup5\n        /* \"event-organization/Event.sol\":1149:1159  events[id] */\n      dup2\n      mstore\n      0x20\n      add\n      swap1\n      dup2\n      mstore\n      0x20\n      add\n      0x00\n      keccak256\n        /* \"event-organization/Event.sol\":1126:1159  Event storage _event = events[id] */\n      swap1\n      pop\n        /* \"event-organization/Event.sol\":1209:1217  quantity */\n      dup2\n        /* \"event-organization/Event.sol\":1190:1196  _event */\n      dup2\n        /* \"event-organization/Event.sol\":1190:1208  _event.ticketPrice */\n      0x03\n      add\n      sload\n        /* \"event-organization/Event.sol\":1190:1217  _event.ticketPrice*quantity */\n      tag_79\n      swap2\n      swap1\n      tag_80\n      jump\t// in\n    tag_79:\n        /* \"event-organization/Event.sol\":1178:1187  msg.value */\n      callvalue\n        /* \"event-organization/Event.sol\":1178:1218  msg.value==(_event.ticketPrice*quantity) */\n      eq\n        /* \"event-organization/Event.sol\":1170:1242  require(msg.value==(_event.ticketPrice*quantity), \"Insufficient Ether!\") */\n      tag_81\n      jumpi\n      mload(0x40)\n      0x08c379a000000000000000000000000000000000000000000000000000000000\n      dup2\n      mstore\n      0x04\n      add\n      tag_82\n      swap1\n      tag_83\n      jump\t// in\n    tag_82:\n      mload(0x40)\n      dup1\n      swap2\n      sub\n      swap1\n      revert\n    tag_81:\n        /* \"event-organization/Event.sol\":1286:1294  quantity */\n      dup2\n        /* \"event-organization/Event.sol\":1261:1267  _event */\n      dup2\n        /* \"event-organization/Event.sol\":1261:1284  _event.remainingTickets */\n      0x05\n      add\n      sload\n        /* \"event-organization/Event.sol\":1261:1294  _event.remainingTickets>=quantity */\n      lt\n      iszero\n        /* \"event-organization/Event.sol\":1253:1328  require(_event.remainingTickets>=quantity, \"Sorry! Tickets not available!\") */\n      tag_84\n      jumpi\n      mload(0x40)\n      0x08c379a000000000000000000000000000000000000000000000000000000000\n      dup2\n      mstore\n      0x04\n      add\n      tag_85\n      swap1\n      tag_86\n      jump\t// in\n    tag_85:\n      mload(0x40)\n      dup1\n      swap2\n      sub\n      swap1\n      revert\n    tag_84:\n        /* \"event-organization/Event.sol\":1364:1372  quantity */\n      dup2\n        /* \"event-organization/Event.sol\":1339:1345  _event */\n      dup2\n        /* \"event-organization/Event.sol\":1339:1362  _event.remainingTickets */\n      0x05\n      add\n      0x00\n        /* \"event-organization/Event.sol\":1339:1372  _event.remainingTickets-=quantity */\n      dup3\n      dup3\n      sload\n      tag_87\n      swap2\n      swap1\n      tag_71\n      jump\t// in\n    tag_87:\n      swap3\n      pop\n      pop\n      dup2\n      swap1\n      sstore\n      pop\n        /* \"event-organization/Event.sol\":1408:1416  quantity */\n      dup2\n        /* \"event-organization/Event.sol\":1383:1390  tickets */\n      0x01\n        /* \"event-organization/Event.sol\":1383:1402  tickets[msg.sender] */\n      0x00\n        /* \"event-organization/Event.sol\":1391:1401  msg.sender */\n      caller\n        /* \"event-organization/Event.sol\":1383:1402  tickets[msg.sender] */\n      0xffffffffffffffffffffffffffffffffffffffff\n      and\n      0xffffffffffffffffffffffffffffffffffffffff\n      and\n      dup2\n      mstore\n      0x20\n      add\n      swap1\n      dup2\n      mstore\n      0x20\n      add\n      0x00\n      keccak256\n        /* \"event-organization/Event.sol\":1383:1406  tickets[msg.sender][id] */\n      0x00\n        /* \"event-organization/Event.sol\":1403:1405  id */\n      dup6\n        /* \"event-organization/Event.sol\":1383:1406  tickets[msg.sender][id] */\n      dup2\n      mstore\n      0x20\n      add\n      swap1\n      dup2\n      mstore\n      0x20\n      add\n      0x00\n      keccak256\n      0x00\n        /* \"event-organization/Event.sol\":1383:1416  tickets[msg.sender][id]+=quantity */\n      dup3\n      dup3\n      sload\n      tag_88\n      swap2\n      swap1\n      tag_73\n      jump\t// in\n    tag_88:\n      swap3\n      pop\n      pop\n      dup2\n      swap1\n      sstore\n      pop\n        /* \"event-organization/Event.sol\":962:1424  {... */\n      pop\n        /* \"event-organization/Event.sol\":903:1424  function buyTickets(uint id, uint quantity) public payable {... */\n      pop\n      pop\n      jump\t// out\n        /* \"event-organization/Event.sol\":323:376  mapping(address=>mapping (uint=>uint)) public tickets */\n    tag_38:\n      mstore(0x20, 0x01)\n      dup2\n      0x00\n      mstore\n      mstore(0x20, keccak256(0x00, 0x40))\n      dup1\n      0x00\n      mstore\n      keccak256(0x00, 0x40)\n      0x00\n      swap2\n      pop\n      swap2\n      pop\n      pop\n      sload\n      dup2\n      jump\t// out\n        /* \"#utility.yul\":7:82   */\n    tag_89:\n        /* \"#utility.yul\":40:46   */\n      0x00\n        /* \"#utility.yul\":73:75   */\n      0x40\n        /* \"#utility.yul\":67:76   */\n      mload\n        /* \"#utility.yul\":57:76   */\n      swap1\n      pop\n        /* \"#utility.yul\":7:82   */\n      swap1\n      jump\t// out\n        /* \"#utility.yul\":88:205   */\n    tag_90:\n        /* \"#utility.yul\":197:198   */\n      0x00\n        /* \"#utility.yul\":194:195   */\n      dup1\n        /* \"#utility.yul\":187:199   */\n      revert\n        /* \"#utility.yul\":211:328   */\n    tag_91:\n        /* \"#utility.yul\":320:321   */\n      0x00\n        /* \"#utility.yul\":317:318   */\n      dup1\n        /* \"#utility.yul\":310:322   */\n      revert\n        /* \"#utility.yul\":334:451   */\n    tag_92:\n        /* \"#utility.yul\":443:444   */\n      0x00\n        /* \"#utility.yul\":440:441   */\n      dup1\n        /* \"#utility.yul\":433:445   */\n      revert\n        /* \"#utility.yul\":457:574   */\n    tag_93:\n        /* \"#utility.yul\":566:567   */\n      0x00\n        /* \"#utility.yul\":563:564   */\n      dup1\n        /* \"#utility.yul\":556:568   */\n      revert\n        /* \"#utility.yul\":580:682   */\n    tag_94:\n        /* \"#utility.yul\":621:627   */\n      0x00\n        /* \"#utility.yul\":672:674   */\n      0x1f\n        /* \"#utility.yul\":668:675   */\n      not\n        /* \"#utility.yul\":663:665   */\n      0x1f\n        /* \"#utility.yul\":656:661   */\n      dup4\n        /* \"#utility.yul\":652:666   */\n      add\n        /* \"#utility.yul\":648:676   */\n      and\n        /* \"#utility.yul\":638:676   */\n      swap1\n      pop\n        /* \"#utility.yul\":580:682   */\n      swap2\n      swap1\n      pop\n      jump\t// out\n        /* \"#utility.yul\":688:868   */\n    tag_95:\n        /* \"#utility.yul\":736:813   */\n      0x4e487b7100000000000000000000000000000000000000000000000000000000\n        /* \"#utility.yul\":733:734   */\n      0x00\n        /* \"#utility.yul\":726:814   */\n      mstore\n        /* \"#utility.yul\":833:837   */\n      0x41\n        /* \"#utility.yul\":830:831   */\n      0x04\n        /* \"#utility.yul\":823:838   */\n      mstore\n        /* \"#utility.yul\":857:861   */\n      0x24\n        /* \"#utility.yul\":854:855   */\n      0x00\n        /* \"#utility.yul\":847:862   */\n      revert\n        /* \"#utility.yul\":874:1155   */\n    tag_96:\n        /* \"#utility.yul\":957:984   */\n      tag_157\n        /* \"#utility.yul\":979:983   */\n      dup3\n        /* \"#utility.yul\":957:984   */\n      tag_94\n      jump\t// in\n    tag_157:\n        /* \"#utility.yul\":949:955   */\n      dup2\n        /* \"#utility.yul\":945:985   */\n      add\n        /* \"#utility.yul\":1087:1093   */\n      dup2\n        /* \"#utility.yul\":1075:1085   */\n      dup2\n        /* \"#utility.yul\":1072:1094   */\n      lt\n        /* \"#utility.yul\":1051:1069   */\n      0xffffffffffffffff\n        /* \"#utility.yul\":1039:1049   */\n      dup3\n        /* \"#utility.yul\":1036:1070   */\n      gt\n        /* \"#utility.yul\":1033:1095   */\n      or\n        /* \"#utility.yul\":1030:1118   */\n      iszero\n      tag_158\n      jumpi\n        /* \"#utility.yul\":1098:1116   */\n      tag_159\n      tag_95\n      jump\t// in\n    tag_159:\n        /* \"#utility.yul\":1030:1118   */\n    tag_158:\n        /* \"#utility.yul\":1138:1148   */\n      dup1\n        /* \"#utility.yul\":1134:1136   */\n      0x40\n        /* \"#utility.yul\":1127:1149   */\n      mstore\n        /* \"#utility.yul\":917:1155   */\n      pop\n        /* \"#utility.yul\":874:1155   */\n      pop\n      pop\n      jump\t// out\n        /* \"#utility.yul\":1161:1290   */\n    tag_97:\n        /* \"#utility.yul\":1195:1201   */\n      0x00\n        /* \"#utility.yul\":1222:1242   */\n      tag_161\n      tag_89\n      jump\t// in\n    tag_161:\n        /* \"#utility.yul\":1212:1242   */\n      swap1\n      pop\n        /* \"#utility.yul\":1251:1284   */\n      tag_162\n        /* \"#utility.yul\":1279:1283   */\n      dup3\n        /* \"#utility.yul\":1271:1277   */\n      dup3\n        /* \"#utility.yul\":1251:1284   */\n      tag_96\n      jump\t// in\n    tag_162:\n        /* \"#utility.yul\":1161:1290   */\n      swap2\n      swap1\n      pop\n      jump\t// out\n        /* \"#utility.yul\":1296:1604   */\n    tag_98:\n        /* \"#utility.yul\":1358:1362   */\n      0x00\n        /* \"#utility.yul\":1448:1466   */\n      0xffffffffffffffff\n        /* \"#utility.yul\":1440:1446   */\n      dup3\n        /* \"#utility.yul\":1437:1467   */\n      gt\n        /* \"#utility.yul\":1434:1490   */\n      iszero\n      tag_164\n      jumpi\n        /* \"#utility.yul\":1470:1488   */\n      tag_165\n      tag_95\n      jump\t// in\n    tag_165:\n        /* \"#utility.yul\":1434:1490   */\n    tag_164:\n        /* \"#utility.yul\":1508:1537   */\n      tag_166\n        /* \"#utility.yul\":1530:1536   */\n      dup3\n        /* \"#utility.yul\":1508:1537   */\n      tag_94\n      jump\t// in\n    tag_166:\n        /* \"#utility.yul\":1500:1537   */\n      swap1\n      pop\n        /* \"#utility.yul\":1592:1596   */\n      0x20\n        /* \"#utility.yul\":1586:1590   */\n      dup2\n        /* \"#utility.yul\":1582:1597   */\n      add\n        /* \"#utility.yul\":1574:1597   */\n      swap1\n      pop\n        /* \"#utility.yul\":1296:1604   */\n      swap2\n      swap1\n      pop\n      jump\t// out\n        /* \"#utility.yul\":1610:1756   */\n    tag_99:\n        /* \"#utility.yul\":1707:1713   */\n      dup3\n        /* \"#utility.yul\":1702:1705   */\n      dup2\n        /* \"#utility.yul\":1697:1700   */\n      dup4\n        /* \"#utility.yul\":1684:1714   */\n      calldatacopy\n        /* \"#utility.yul\":1748:1749   */\n      0x00\n        /* \"#utility.yul\":1739:1745   */\n      dup4\n        /* \"#utility.yul\":1734:1737   */\n      dup4\n        /* \"#utility.yul\":1730:1746   */\n      add\n        /* \"#utility.yul\":1723:1750   */\n      mstore\n        /* \"#utility.yul\":1610:1756   */\n      pop\n      pop\n      pop\n      jump\t// out\n        /* \"#utility.yul\":1762:2187   */\n    tag_100:\n        /* \"#utility.yul\":1840:1845   */\n      0x00\n        /* \"#utility.yul\":1865:1931   */\n      tag_169\n        /* \"#utility.yul\":1881:1930   */\n      tag_170\n        /* \"#utility.yul\":1923:1929   */\n      dup5\n        /* \"#utility.yul\":1881:1930   */\n      tag_98\n      jump\t// in\n    tag_170:\n        /* \"#utility.yul\":1865:1931   */\n      tag_97\n      jump\t// in\n    tag_169:\n        /* \"#utility.yul\":1856:1931   */\n      swap1\n      pop\n        /* \"#utility.yul\":1954:1960   */\n      dup3\n        /* \"#utility.yul\":1947:1952   */\n      dup2\n        /* \"#utility.yul\":1940:1961   */\n      mstore\n        /* \"#utility.yul\":1992:1996   */\n      0x20\n        /* \"#utility.yul\":1985:1990   */\n      dup2\n        /* \"#utility.yul\":1981:1997   */\n      add\n        /* \"#utility.yul\":2030:2033   */\n      dup5\n        /* \"#utility.yul\":2021:2027   */\n      dup5\n        /* \"#utility.yul\":2016:2019   */\n      dup5\n        /* \"#utility.yul\":2012:2028   */\n      add\n        /* \"#utility.yul\":2009:2034   */\n      gt\n        /* \"#utility.yul\":2006:2118   */\n      iszero\n      tag_171\n      jumpi\n        /* \"#utility.yul\":2037:2116   */\n      tag_172\n      tag_93\n      jump\t// in\n    tag_172:\n        /* \"#utility.yul\":2006:2118   */\n    tag_171:\n        /* \"#utility.yul\":2127:2181   */\n      tag_173\n        /* \"#utility.yul\":2174:2180   */\n      dup5\n        /* \"#utility.yul\":2169:2172   */\n      dup3\n        /* \"#utility.yul\":2164:2167   */\n      dup6\n        /* \"#utility.yul\":2127:2181   */\n      tag_99\n      jump\t// in\n    tag_173:\n        /* \"#utility.yul\":1846:2187   */\n      pop\n        /* \"#utility.yul\":1762:2187   */\n      swap4\n      swap3\n      pop\n      pop\n      pop\n      jump\t// out\n        /* \"#utility.yul\":2207:2547   */\n    tag_101:\n        /* \"#utility.yul\":2263:2268   */\n      0x00\n        /* \"#utility.yul\":2312:2315   */\n      dup3\n        /* \"#utility.yul\":2305:2309   */\n      0x1f\n        /* \"#utility.yul\":2297:2303   */\n      dup4\n        /* \"#utility.yul\":2293:2310   */\n      add\n        /* \"#utility.yul\":2289:2316   */\n      slt\n        /* \"#utility.yul\":2279:2401   */\n      tag_175\n      jumpi\n        /* \"#utility.yul\":2320:2399   */\n      tag_176\n      tag_92\n      jump\t// in\n    tag_176:\n        /* \"#utility.yul\":2279:2401   */\n    tag_175:\n        /* \"#utility.yul\":2437:2443   */\n      dup2\n        /* \"#utility.yul\":2424:2444   */\n      calldataload\n        /* \"#utility.yul\":2462:2541   */\n      tag_177\n        /* \"#utility.yul\":2537:2540   */\n      dup5\n        /* \"#utility.yul\":2529:2535   */\n      dup3\n        /* \"#utility.yul\":2522:2526   */\n      0x20\n        /* \"#utility.yul\":2514:2520   */\n      dup7\n        /* \"#utility.yul\":2510:2527   */\n      add\n        /* \"#utility.yul\":2462:2541   */\n      tag_100\n      jump\t// in\n    tag_177:\n        /* \"#utility.yul\":2453:2541   */\n      swap2\n      pop\n        /* \"#utility.yul\":2269:2547   */\n      pop\n        /* \"#utility.yul\":2207:2547   */\n      swap3\n      swap2\n      pop\n      pop\n      jump\t// out\n        /* \"#utility.yul\":2553:2630   */\n    tag_102:\n        /* \"#utility.yul\":2590:2597   */\n      0x00\n        /* \"#utility.yul\":2619:2624   */\n      dup2\n        /* \"#utility.yul\":2608:2624   */\n      swap1\n      pop\n        /* \"#utility.yul\":2553:2630   */\n      swap2\n      swap1\n      pop\n      jump\t// out\n        /* \"#utility.yul\":2636:2758   */\n    tag_103:\n        /* \"#utility.yul\":2709:2733   */\n      tag_180\n        /* \"#utility.yul\":2727:2732   */\n      dup2\n        /* \"#utility.yul\":2709:2733   */\n      tag_102\n      jump\t// in\n    tag_180:\n        /* \"#utility.yul\":2702:2707   */\n      dup2\n        /* \"#utility.yul\":2699:2734   */\n      eq\n        /* \"#utility.yul\":2689:2752   */\n      tag_181\n      jumpi\n        /* \"#utility.yul\":2748:2749   */\n      0x00\n        /* \"#utility.yul\":2745:2746   */\n      dup1\n        /* \"#utility.yul\":2738:2750   */\n      revert\n        /* \"#utility.yul\":2689:2752   */\n    tag_181:\n        /* \"#utility.yul\":2636:2758   */\n      pop\n      jump\t// out\n        /* \"#utility.yul\":2764:2903   */\n    tag_104:\n        /* \"#utility.yul\":2810:2815   */\n      0x00\n        /* \"#utility.yul\":2848:2854   */\n      dup2\n        /* \"#utility.yul\":2835:2855   */\n      calldataload\n        /* \"#utility.yul\":2826:2855   */\n      swap1\n      pop\n        /* \"#utility.yul\":2864:2897   */\n      tag_183\n        /* \"#utility.yul\":2891:2896   */\n      dup2\n        /* \"#utility.yul\":2864:2897   */\n      tag_103\n      jump\t// in\n    tag_183:\n        /* \"#utility.yul\":2764:2903   */\n      swap3\n      swap2\n      pop\n      pop\n      jump\t// out\n        /* \"#utility.yul\":2909:3854   */\n    tag_11:\n        /* \"#utility.yul\":3005:3011   */\n      0x00\n        /* \"#utility.yul\":3013:3019   */\n      dup1\n        /* \"#utility.yul\":3021:3027   */\n      0x00\n        /* \"#utility.yul\":3029:3035   */\n      dup1\n        /* \"#utility.yul\":3078:3081   */\n      0x80\n        /* \"#utility.yul\":3066:3075   */\n      dup6\n        /* \"#utility.yul\":3057:3064   */\n      dup8\n        /* \"#utility.yul\":3053:3076   */\n      sub\n        /* \"#utility.yul\":3049:3082   */\n      slt\n        /* \"#utility.yul\":3046:3166   */\n      iszero\n      tag_185\n      jumpi\n        /* \"#utility.yul\":3085:3164   */\n      tag_186\n      tag_90\n      jump\t// in\n    tag_186:\n        /* \"#utility.yul\":3046:3166   */\n    tag_185:\n        /* \"#utility.yul\":3233:3234   */\n      0x00\n        /* \"#utility.yul\":3222:3231   */\n      dup6\n        /* \"#utility.yul\":3218:3235   */\n      add\n        /* \"#utility.yul\":3205:3236   */\n      calldataload\n        /* \"#utility.yul\":3263:3281   */\n      0xffffffffffffffff\n        /* \"#utility.yul\":3255:3261   */\n      dup2\n        /* \"#utility.yul\":3252:3282   */\n      gt\n        /* \"#utility.yul\":3249:3366   */\n      iszero\n      tag_187\n      jumpi\n        /* \"#utility.yul\":3285:3364   */\n      tag_188\n      tag_91\n      jump\t// in\n    tag_188:\n        /* \"#utility.yul\":3249:3366   */\n    tag_187:\n        /* \"#utility.yul\":3390:3453   */\n      tag_189\n        /* \"#utility.yul\":3445:3452   */\n      dup8\n        /* \"#utility.yul\":3436:3442   */\n      dup3\n        /* \"#utility.yul\":3425:3434   */\n      dup9\n        /* \"#utility.yul\":3421:3443   */\n      add\n        /* \"#utility.yul\":3390:3453   */\n      tag_101\n      jump\t// in\n    tag_189:\n        /* \"#utility.yul\":3380:3453   */\n      swap5\n      pop\n        /* \"#utility.yul\":3176:3463   */\n      pop\n        /* \"#utility.yul\":3502:3504   */\n      0x20\n        /* \"#utility.yul\":3528:3581   */\n      tag_190\n        /* \"#utility.yul\":3573:3580   */\n      dup8\n        /* \"#utility.yul\":3564:3570   */\n      dup3\n        /* \"#utility.yul\":3553:3562   */\n      dup9\n        /* \"#utility.yul\":3549:3571   */\n      add\n        /* \"#utility.yul\":3528:3581   */\n      tag_104\n      jump\t// in\n    tag_190:\n        /* \"#utility.yul\":3518:3581   */\n      swap4\n      pop\n        /* \"#utility.yul\":3473:3591   */\n      pop\n        /* \"#utility.yul\":3630:3632   */\n      0x40\n        /* \"#utility.yul\":3656:3709   */\n      tag_191\n        /* \"#utility.yul\":3701:3708   */\n      dup8\n        /* \"#utility.yul\":3692:3698   */\n      dup3\n        /* \"#utility.yul\":3681:3690   */\n      dup9\n        /* \"#utility.yul\":3677:3699   */\n      add\n        /* \"#utility.yul\":3656:3709   */\n      tag_104\n      jump\t// in\n    tag_191:\n        /* \"#utility.yul\":3646:3709   */\n      swap3\n      pop\n        /* \"#utility.yul\":3601:3719   */\n      pop\n        /* \"#utility.yul\":3758:3760   */\n      0x60\n        /* \"#utility.yul\":3784:3837   */\n      tag_192\n        /* \"#utility.yul\":3829:3836   */\n      dup8\n        /* \"#utility.yul\":3820:3826   */\n      dup3\n        /* \"#utility.yul\":3809:3818   */\n      dup9\n        /* \"#utility.yul\":3805:3827   */\n      add\n        /* \"#utility.yul\":3784:3837   */\n      tag_104\n      jump\t// in\n    tag_192:\n        /* \"#utility.yul\":3774:3837   */\n      swap2\n      pop\n        /* \"#utility.yul\":3729:3847   */\n      pop\n        /* \"#utility.yul\":2909:3854   */\n      swap3\n      swap6\n      swap2\n      swap5\n      pop\n      swap3\n      pop\n      jump\t// out\n        /* \"#utility.yul\":3860:4189   */\n    tag_16:\n        /* \"#utility.yul\":3919:3925   */\n      0x00\n        /* \"#utility.yul\":3968:3970   */\n      0x20\n        /* \"#utility.yul\":3956:3965   */\n      dup3\n        /* \"#utility.yul\":3947:3954   */\n      dup5\n        /* \"#utility.yul\":3943:3966   */\n      sub\n        /* \"#utility.yul\":3939:3971   */\n      slt\n        /* \"#utility.yul\":3936:4055   */\n      iszero\n      tag_194\n      jumpi\n        /* \"#utility.yul\":3974:4053   */\n      tag_195\n      tag_90\n      jump\t// in\n    tag_195:\n        /* \"#utility.yul\":3936:4055   */\n    tag_194:\n        /* \"#utility.yul\":4094:4095   */\n      0x00\n        /* \"#utility.yul\":4119:4172   */\n      tag_196\n        /* \"#utility.yul\":4164:4171   */\n      dup5\n        /* \"#utility.yul\":4155:4161   */\n      dup3\n        /* \"#utility.yul\":4144:4153   */\n      dup6\n        /* \"#utility.yul\":4140:4162   */\n      add\n        /* \"#utility.yul\":4119:4172   */\n      tag_104\n      jump\t// in\n    tag_196:\n        /* \"#utility.yul\":4109:4172   */\n      swap2\n      pop\n        /* \"#utility.yul\":4065:4182   */\n      pop\n        /* \"#utility.yul\":3860:4189   */\n      swap3\n      swap2\n      pop\n      pop\n      jump\t// out\n        /* \"#utility.yul\":4195:4321   */\n    tag_105:\n        /* \"#utility.yul\":4232:4239   */\n      0x00\n        /* \"#utility.yul\":4272:4314   */\n      0xffffffffffffffffffffffffffffffffffffffff\n        /* \"#utility.yul\":4265:4270   */\n      dup3\n        /* \"#utility.yul\":4261:4315   */\n      and\n        /* \"#utility.yul\":4250:4315   */\n      swap1\n      pop\n        /* \"#utility.yul\":4195:4321   */\n      swap2\n      swap1\n      pop\n      jump\t// out\n        /* \"#utility.yul\":4327:4423   */\n    tag_106:\n        /* \"#utility.yul\":4364:4371   */\n      0x00\n        /* \"#utility.yul\":4393:4417   */\n      tag_199\n        /* \"#utility.yul\":4411:4416   */\n      dup3\n        /* \"#utility.yul\":4393:4417   */\n      tag_105\n      jump\t// in\n    tag_199:\n        /* \"#utility.yul\":4382:4417   */\n      swap1\n      pop\n        /* \"#utility.yul\":4327:4423   */\n      swap2\n      swap1\n      pop\n      jump\t// out\n        /* \"#utility.yul\":4429:4547   */\n    tag_107:\n        /* \"#utility.yul\":4516:4540   */\n      tag_201\n        /* \"#utility.yul\":4534:4539   */\n      dup2\n        /* \"#utility.yul\":4516:4540   */\n      tag_106\n      jump\t// in\n    tag_201:\n        /* \"#utility.yul\":4511:4514   */\n      dup3\n        /* \"#utility.yul\":4504:4541   */\n      mstore\n        /* \"#utility.yul\":4429:4547   */\n      pop\n      pop\n      jump\t// out\n        /* \"#utility.yul\":4553:4652   */\n    tag_108:\n        /* \"#utility.yul\":4605:4611   */\n      0x00\n        /* \"#utility.yul\":4639:4644   */\n      dup2\n        /* \"#utility.yul\":4633:4645   */\n      mload\n        /* \"#utility.yul\":4623:4645   */\n      swap1\n      pop\n        /* \"#utility.yul\":4553:4652   */\n      swap2\n      swap1\n      pop\n      jump\t// out\n        /* \"#utility.yul\":4658:4827   */\n    tag_109:\n        /* \"#utility.yul\":4742:4753   */\n      0x00\n        /* \"#utility.yul\":4776:4782   */\n      dup3\n        /* \"#utility.yul\":4771:4774   */\n      dup3\n        /* \"#utility.yul\":4764:4783   */\n      mstore\n        /* \"#utility.yul\":4816:4820   */\n      0x20\n        /* \"#utility.yul\":4811:4814   */\n      dup3\n        /* \"#utility.yul\":4807:4821   */\n      add\n        /* \"#utility.yul\":4792:4821   */\n      swap1\n      pop\n        /* \"#utility.yul\":4658:4827   */\n      swap3\n      swap2\n      pop\n      pop\n      jump\t// out\n        /* \"#utility.yul\":4833:5079   */\n    tag_110:\n        /* \"#utility.yul\":4914:4915   */\n      0x00\n        /* \"#utility.yul\":4924:5037   */\n    tag_205:\n        /* \"#utility.yul\":4938:4944   */\n      dup4\n        /* \"#utility.yul\":4935:4936   */\n      dup2\n        /* \"#utility.yul\":4932:4945   */\n      lt\n        /* \"#utility.yul\":4924:5037   */\n      iszero\n      tag_207\n      jumpi\n        /* \"#utility.yul\":5023:5024   */\n      dup1\n        /* \"#utility.yul\":5018:5021   */\n      dup3\n        /* \"#utility.yul\":5014:5025   */\n      add\n        /* \"#utility.yul\":5008:5026   */\n      mload\n        /* \"#utility.yul\":5004:5005   */\n      dup2\n        /* \"#utility.yul\":4999:5002   */\n      dup5\n        /* \"#utility.yul\":4995:5006   */\n      add\n        /* \"#utility.yul\":4988:5027   */\n      mstore\n        /* \"#utility.yul\":4960:4962   */\n      0x20\n        /* \"#utility.yul\":4957:4958   */\n      dup2\n        /* \"#utility.yul\":4953:4963   */\n      add\n        /* \"#utility.yul\":4948:4963   */\n      swap1\n      pop\n        /* \"#utility.yul\":4924:5037   */\n      jump(tag_205)\n    tag_207:\n        /* \"#utility.yul\":5071:5072   */\n      0x00\n        /* \"#utility.yul\":5062:5068   */\n      dup5\n        /* \"#utility.yul\":5057:5060   */\n      dup5\n        /* \"#utility.yul\":5053:5069   */\n      add\n        /* \"#utility.yul\":5046:5073   */\n      mstore\n        /* \"#utility.yul\":4895:5079   */\n      pop\n        /* \"#utility.yul\":4833:5079   */\n      pop\n      pop\n      pop\n      jump\t// out\n        /* \"#utility.yul\":5085:5462   */\n    tag_111:\n        /* \"#utility.yul\":5173:5176   */\n      0x00\n        /* \"#utility.yul\":5201:5240   */\n      tag_209\n        /* \"#utility.yul\":5234:5239   */\n      dup3\n        /* \"#utility.yul\":5201:5240   */\n      tag_108\n      jump\t// in\n    tag_209:\n        /* \"#utility.yul\":5256:5327   */\n      tag_210\n        /* \"#utility.yul\":5320:5326   */\n      dup2\n        /* \"#utility.yul\":5315:5318   */\n      dup6\n        /* \"#utility.yul\":5256:5327   */\n      tag_109\n      jump\t// in\n    tag_210:\n        /* \"#utility.yul\":5249:5327   */\n      swap4\n      pop\n        /* \"#utility.yul\":5336:5401   */\n      tag_211\n        /* \"#utility.yul\":5394:5400   */\n      dup2\n        /* \"#utility.yul\":5389:5392   */\n      dup6\n        /* \"#utility.yul\":5382:5386   */\n      0x20\n        /* \"#utility.yul\":5375:5380   */\n      dup7\n        /* \"#utility.yul\":5371:5387   */\n      add\n        /* \"#utility.yul\":5336:5401   */\n      tag_110\n      jump\t// in\n    tag_211:\n        /* \"#utility.yul\":5426:5455   */\n      tag_212\n        /* \"#utility.yul\":5448:5454   */\n      dup2\n        /* \"#utility.yul\":5426:5455   */\n      tag_94\n      jump\t// in\n    tag_212:\n        /* \"#utility.yul\":5421:5424   */\n      dup5\n        /* \"#utility.yul\":5417:5456   */\n      add\n        /* \"#utility.yul\":5410:5456   */\n      swap2\n      pop\n        /* \"#utility.yul\":5177:5462   */\n      pop\n        /* \"#utility.yul\":5085:5462   */\n      swap3\n      swap2\n      pop\n      pop\n      jump\t// out\n        /* \"#utility.yul\":5468:5586   */\n    tag_112:\n        /* \"#utility.yul\":5555:5579   */\n      tag_214\n        /* \"#utility.yul\":5573:5578   */\n      dup2\n        /* \"#utility.yul\":5555:5579   */\n      tag_102\n      jump\t// in\n    tag_214:\n        /* \"#utility.yul\":5550:5553   */\n      dup3\n        /* \"#utility.yul\":5543:5580   */\n      mstore\n        /* \"#utility.yul\":5468:5586   */\n      pop\n      pop\n      jump\t// out\n        /* \"#utility.yul\":5592:6458   */\n    tag_19:\n        /* \"#utility.yul\":5845:5849   */\n      0x00\n        /* \"#utility.yul\":5883:5886   */\n      0xc0\n        /* \"#utility.yul\":5872:5881   */\n      dup3\n        /* \"#utility.yul\":5868:5887   */\n      add\n        /* \"#utility.yul\":5860:5887   */\n      swap1\n      pop\n        /* \"#utility.yul\":5897:5968   */\n      tag_216\n        /* \"#utility.yul\":5965:5966   */\n      0x00\n        /* \"#utility.yul\":5954:5963   */\n      dup4\n        /* \"#utility.yul\":5950:5967   */\n      add\n        /* \"#utility.yul\":5941:5947   */\n      dup10\n        /* \"#utility.yul\":5897:5968   */\n      tag_107\n      jump\t// in\n    tag_216:\n        /* \"#utility.yul\":6015:6024   */\n      dup2\n        /* \"#utility.yul\":6009:6013   */\n      dup2\n        /* \"#utility.yul\":6005:6025   */\n      sub\n        /* \"#utility.yul\":6000:6002   */\n      0x20\n        /* \"#utility.yul\":5989:5998   */\n      dup4\n        /* \"#utility.yul\":5985:6003   */\n      add\n        /* \"#utility.yul\":5978:6026   */\n      mstore\n        /* \"#utility.yul\":6043:6121   */\n      tag_217\n        /* \"#utility.yul\":6116:6120   */\n      dup2\n        /* \"#utility.yul\":6107:6113   */\n      dup9\n        /* \"#utility.yul\":6043:6121   */\n      tag_111\n      jump\t// in\n    tag_217:\n        /* \"#utility.yul\":6035:6121   */\n      swap1\n      pop\n        /* \"#utility.yul\":6131:6203   */\n      tag_218\n        /* \"#utility.yul\":6199:6201   */\n      0x40\n        /* \"#utility.yul\":6188:6197   */\n      dup4\n        /* \"#utility.yul\":6184:6202   */\n      add\n        /* \"#utility.yul\":6175:6181   */\n      dup8\n        /* \"#utility.yul\":6131:6203   */\n      tag_112\n      jump\t// in\n    tag_218:\n        /* \"#utility.yul\":6213:6285   */\n      tag_219\n        /* \"#utility.yul\":6281:6283   */\n      0x60\n        /* \"#utility.yul\":6270:6279   */\n      dup4\n        /* \"#utility.yul\":6266:6284   */\n      add\n        /* \"#utility.yul\":6257:6263   */\n      dup7\n        /* \"#utility.yul\":6213:6285   */\n      tag_112\n      jump\t// in\n    tag_219:\n        /* \"#utility.yul\":6295:6368   */\n      tag_220\n        /* \"#utility.yul\":6363:6366   */\n      0x80\n        /* \"#utility.yul\":6352:6361   */\n      dup4\n        /* \"#utility.yul\":6348:6367   */\n      add\n        /* \"#utility.yul\":6339:6345   */\n      dup6\n        /* \"#utility.yul\":6295:6368   */\n      tag_112\n      jump\t// in\n    tag_220:\n        /* \"#utility.yul\":6378:6451   */\n      tag_221\n        /* \"#utility.yul\":6446:6449   */\n      0xa0\n        /* \"#utility.yul\":6435:6444   */\n      dup4\n        /* \"#utility.yul\":6431:6450   */\n      add\n        /* \"#utility.yul\":6422:6428   */\n      dup5\n        /* \"#utility.yul\":6378:6451   */\n      tag_112\n      jump\t// in\n    tag_221:\n        /* \"#utility.yul\":5592:6458   */\n      swap8\n      swap7\n      pop\n      pop\n      pop\n      pop\n      pop\n      pop\n      pop\n      jump\t// out\n        /* \"#utility.yul\":6464:6586   */\n    tag_113:\n        /* \"#utility.yul\":6537:6561   */\n      tag_223\n        /* \"#utility.yul\":6555:6560   */\n      dup2\n        /* \"#utility.yul\":6537:6561   */\n      tag_106\n      jump\t// in\n    tag_223:\n        /* \"#utility.yul\":6530:6535   */\n      dup2\n        /* \"#utility.yul\":6527:6562   */\n      eq\n        /* \"#utility.yul\":6517:6580   */\n      tag_224\n      jumpi\n        /* \"#utility.yul\":6576:6577   */\n      0x00\n        /* \"#utility.yul\":6573:6574   */\n      dup1\n        /* \"#utility.yul\":6566:6578   */\n      revert\n        /* \"#utility.yul\":6517:6580   */\n    tag_224:\n        /* \"#utility.yul\":6464:6586   */\n      pop\n      jump\t// out\n        /* \"#utility.yul\":6592:6731   */\n    tag_114:\n        /* \"#utility.yul\":6638:6643   */\n      0x00\n        /* \"#utility.yul\":6676:6682   */\n      dup2\n        /* \"#utility.yul\":6663:6683   */\n      calldataload\n        /* \"#utility.yul\":6654:6683   */\n      swap1\n      pop\n        /* \"#utility.yul\":6692:6725   */\n      tag_226\n        /* \"#utility.yul\":6719:6724   */\n      dup2\n        /* \"#utility.yul\":6692:6725   */\n      tag_113\n      jump\t// in\n    tag_226:\n        /* \"#utility.yul\":6592:6731   */\n      swap3\n      swap2\n      pop\n      pop\n      jump\t// out\n        /* \"#utility.yul\":6737:7356   */\n    tag_23:\n        /* \"#utility.yul\":6814:6820   */\n      0x00\n        /* \"#utility.yul\":6822:6828   */\n      dup1\n        /* \"#utility.yul\":6830:6836   */\n      0x00\n        /* \"#utility.yul\":6879:6881   */\n      0x60\n        /* \"#utility.yul\":6867:6876   */\n      dup5\n        /* \"#utility.yul\":6858:6865   */\n      dup7\n        /* \"#utility.yul\":6854:6877   */\n      sub\n        /* \"#utility.yul\":6850:6882   */\n      slt\n        /* \"#utility.yul\":6847:6966   */\n      iszero\n      tag_228\n      jumpi\n        /* \"#utility.yul\":6885:6964   */\n      tag_229\n      tag_90\n      jump\t// in\n    tag_229:\n        /* \"#utility.yul\":6847:6966   */\n    tag_228:\n        /* \"#utility.yul\":7005:7006   */\n      0x00\n        /* \"#utility.yul\":7030:7083   */\n      tag_230\n        /* \"#utility.yul\":7075:7082   */\n      dup7\n        /* \"#utility.yul\":7066:7072   */\n      dup3\n        /* \"#utility.yul\":7055:7064   */\n      dup8\n        /* \"#utility.yul\":7051:7073   */\n      add\n        /* \"#utility.yul\":7030:7083   */\n      tag_104\n      jump\t// in\n    tag_230:\n        /* \"#utility.yul\":7020:7083   */\n      swap4\n      pop\n        /* \"#utility.yul\":6976:7093   */\n      pop\n        /* \"#utility.yul\":7132:7134   */\n      0x20\n        /* \"#utility.yul\":7158:7211   */\n      tag_231\n        /* \"#utility.yul\":7203:7210   */\n      dup7\n        /* \"#utility.yul\":7194:7200   */\n      dup3\n        /* \"#utility.yul\":7183:7192   */\n      dup8\n        /* \"#utility.yul\":7179:7201   */\n      add\n        /* \"#utility.yul\":7158:7211   */\n      tag_104\n      jump\t// in\n    tag_231:\n        /* \"#utility.yul\":7148:7211   */\n      swap3\n      pop\n        /* \"#utility.yul\":7103:7221   */\n      pop\n        /* \"#utility.yul\":7260:7262   */\n      0x40\n        /* \"#utility.yul\":7286:7339   */\n      tag_232\n        /* \"#utility.yul\":7331:7338   */\n      dup7\n        /* \"#utility.yul\":7322:7328   */\n      dup3\n        /* \"#utility.yul\":7311:7320   */\n      dup8\n        /* \"#utility.yul\":7307:7329   */\n      add\n        /* \"#utility.yul\":7286:7339   */\n      tag_114\n      jump\t// in\n    tag_232:\n        /* \"#utility.yul\":7276:7339   */\n      swap2\n      pop\n        /* \"#utility.yul\":7231:7349   */\n      pop\n        /* \"#utility.yul\":6737:7356   */\n      swap3\n      pop\n      swap3\n      pop\n      swap3\n      jump\t// out\n        /* \"#utility.yul\":7362:7584   */\n    tag_29:\n        /* \"#utility.yul\":7455:7459   */\n      0x00\n        /* \"#utility.yul\":7493:7495   */\n      0x20\n        /* \"#utility.yul\":7482:7491   */\n      dup3\n        /* \"#utility.yul\":7478:7496   */\n      add\n        /* \"#utility.yul\":7470:7496   */\n      swap1\n      pop\n        /* \"#utility.yul\":7506:7577   */\n      tag_234\n        /* \"#utility.yul\":7574:7575   */\n      0x00\n        /* \"#utility.yul\":7563:7572   */\n      dup4\n        /* \"#utility.yul\":7559:7576   */\n      add\n        /* \"#utility.yul\":7550:7556   */\n      dup5\n        /* \"#utility.yul\":7506:7577   */\n      tag_112\n      jump\t// in\n    tag_234:\n        /* \"#utility.yul\":7362:7584   */\n      swap3\n      swap2\n      pop\n      pop\n      jump\t// out\n        /* \"#utility.yul\":7590:8064   */\n    tag_32:\n        /* \"#utility.yul\":7658:7664   */\n      0x00\n        /* \"#utility.yul\":7666:7672   */\n      dup1\n        /* \"#utility.yul\":7715:7717   */\n      0x40\n        /* \"#utility.yul\":7703:7712   */\n      dup4\n        /* \"#utility.yul\":7694:7701   */\n      dup6\n        /* \"#utility.yul\":7690:7713   */\n      sub\n        /* \"#utility.yul\":7686:7718   */\n      slt\n        /* \"#utility.yul\":7683:7802   */\n      iszero\n      tag_236\n      jumpi\n        /* \"#utility.yul\":7721:7800   */\n      tag_237\n      tag_90\n      jump\t// in\n    tag_237:\n        /* \"#utility.yul\":7683:7802   */\n    tag_236:\n        /* \"#utility.yul\":7841:7842   */\n      0x00\n        /* \"#utility.yul\":7866:7919   */\n      tag_238\n        /* \"#utility.yul\":7911:7918   */\n      dup6\n        /* \"#utility.yul\":7902:7908   */\n      dup3\n        /* \"#utility.yul\":7891:7900   */\n      dup7\n        /* \"#utility.yul\":7887:7909   */\n      add\n        /* \"#utility.yul\":7866:7919   */\n      tag_104\n      jump\t// in\n    tag_238:\n        /* \"#utility.yul\":7856:7919   */\n      swap3\n      pop\n        /* \"#utility.yul\":7812:7929   */\n      pop\n        /* \"#utility.yul\":7968:7970   */\n      0x20\n        /* \"#utility.yul\":7994:8047   */\n      tag_239\n        /* \"#utility.yul\":8039:8046   */\n      dup6\n        /* \"#utility.yul\":8030:8036   */\n      dup3\n        /* \"#utility.yul\":8019:8028   */\n      dup7\n        /* \"#utility.yul\":8015:8037   */\n      add\n        /* \"#utility.yul\":7994:8047   */\n      tag_104\n      jump\t// in\n    tag_239:\n        /* \"#utility.yul\":7984:8047   */\n      swap2\n      pop\n        /* \"#utility.yul\":7939:8057   */\n      pop\n        /* \"#utility.yul\":7590:8064   */\n      swap3\n      pop\n      swap3\n      swap1\n      pop\n      jump\t// out\n        /* \"#utility.yul\":8070:8544   */\n    tag_37:\n        /* \"#utility.yul\":8138:8144   */\n      0x00\n        /* \"#utility.yul\":8146:8152   */\n      dup1\n        /* \"#utility.yul\":8195:8197   */\n      0x40\n        /* \"#utility.yul\":8183:8192   */\n      dup4\n        /* \"#utility.yul\":8174:8181   */\n      dup6\n        /* \"#utility.yul\":8170:8193   */\n      sub\n        /* \"#utility.yul\":8166:8198   */\n      slt\n        /* \"#utility.yul\":8163:8282   */\n      iszero\n      tag_241\n      jumpi\n        /* \"#utility.yul\":8201:8280   */\n      tag_242\n      tag_90\n      jump\t// in\n    tag_242:\n        /* \"#utility.yul\":8163:8282   */\n    tag_241:\n        /* \"#utility.yul\":8321:8322   */\n      0x00\n        /* \"#utility.yul\":8346:8399   */\n      tag_243\n        /* \"#utility.yul\":8391:8398   */\n      dup6\n        /* \"#utility.yul\":8382:8388   */\n      dup3\n        /* \"#utility.yul\":8371:8380   */\n      dup7\n        /* \"#utility.yul\":8367:8389   */\n      add\n        /* \"#utility.yul\":8346:8399   */\n      tag_114\n      jump\t// in\n    tag_243:\n        /* \"#utility.yul\":8336:8399   */\n      swap3\n      pop\n        /* \"#utility.yul\":8292:8409   */\n      pop\n        /* \"#utility.yul\":8448:8450   */\n      0x20\n        /* \"#utility.yul\":8474:8527   */\n      tag_244\n        /* \"#utility.yul\":8519:8526   */\n      dup6\n        /* \"#utility.yul\":8510:8516   */\n      dup3\n        /* \"#utility.yul\":8499:8508   */\n      dup7\n        /* \"#utility.yul\":8495:8517   */\n      add\n        /* \"#utility.yul\":8474:8527   */\n      tag_104\n      jump\t// in\n    tag_244:\n        /* \"#utility.yul\":8464:8527   */\n      swap2\n      pop\n        /* \"#utility.yul\":8419:8537   */\n      pop\n        /* \"#utility.yul\":8070:8544   */\n      swap3\n      pop\n      swap3\n      swap1\n      pop\n      jump\t// out\n        /* \"#utility.yul\":8550:8780   */\n    tag_115:\n        /* \"#utility.yul\":8690:8724   */\n      0x506c656173652073656c656374206120667574757265206461746520666f7220\n        /* \"#utility.yul\":8686:8687   */\n      0x00\n        /* \"#utility.yul\":8678:8684   */\n      dup3\n        /* \"#utility.yul\":8674:8688   */\n      add\n        /* \"#utility.yul\":8667:8725   */\n      mstore\n        /* \"#utility.yul\":8759:8772   */\n      0x796f7572206576656e7421000000000000000000000000000000000000000000\n        /* \"#utility.yul\":8754:8756   */\n      0x20\n        /* \"#utility.yul\":8746:8752   */\n      dup3\n        /* \"#utility.yul\":8742:8757   */\n      add\n        /* \"#utility.yul\":8735:8773   */\n      mstore\n        /* \"#utility.yul\":8550:8780   */\n      pop\n      jump\t// out\n        /* \"#utility.yul\":8786:9152   */\n    tag_116:\n        /* \"#utility.yul\":8928:8931   */\n      0x00\n        /* \"#utility.yul\":8949:9016   */\n      tag_247\n        /* \"#utility.yul\":9013:9015   */\n      0x2b\n        /* \"#utility.yul\":9008:9011   */\n      dup4\n        /* \"#utility.yul\":8949:9016   */\n      tag_109\n      jump\t// in\n    tag_247:\n        /* \"#utility.yul\":8942:9016   */\n      swap2\n      pop\n        /* \"#utility.yul\":9025:9118   */\n      tag_248\n        /* \"#utility.yul\":9114:9117   */\n      dup3\n        /* \"#utility.yul\":9025:9118   */\n      tag_115\n      jump\t// in\n    tag_248:\n        /* \"#utility.yul\":9143:9145   */\n      0x40\n        /* \"#utility.yul\":9138:9141   */\n      dup3\n        /* \"#utility.yul\":9134:9146   */\n      add\n        /* \"#utility.yul\":9127:9146   */\n      swap1\n      pop\n        /* \"#utility.yul\":8786:9152   */\n      swap2\n      swap1\n      pop\n      jump\t// out\n        /* \"#utility.yul\":9158:9577   */\n    tag_43:\n        /* \"#utility.yul\":9324:9328   */\n      0x00\n        /* \"#utility.yul\":9362:9364   */\n      0x20\n        /* \"#utility.yul\":9351:9360   */\n      dup3\n        /* \"#utility.yul\":9347:9365   */\n      add\n        /* \"#utility.yul\":9339:9365   */\n      swap1\n      pop\n        /* \"#utility.yul\":9411:9420   */\n      dup2\n        /* \"#utility.yul\":9405:9409   */\n      dup2\n        /* \"#utility.yul\":9401:9421   */\n      sub\n        /* \"#utility.yul\":9397:9398   */\n      0x00\n        /* \"#utility.yul\":9386:9395   */\n      dup4\n        /* \"#utility.yul\":9382:9399   */\n      add\n        /* \"#utility.yul\":9375:9422   */\n      mstore\n        /* \"#utility.yul\":9439:9570   */\n      tag_250\n        /* \"#utility.yul\":9565:9569   */\n      dup2\n        /* \"#utility.yul\":9439:9570   */\n      tag_116\n      jump\t// in\n    tag_250:\n        /* \"#utility.yul\":9431:9570   */\n      swap1\n      pop\n        /* \"#utility.yul\":9158:9577   */\n      swap2\n      swap1\n      pop\n      jump\t// out\n        /* \"#utility.yul\":9583:9803   */\n    tag_117:\n        /* \"#utility.yul\":9723:9757   */\n      0x53656c65637420612076616c6964206e756d626572206f66207469636b657473\n        /* \"#utility.yul\":9719:9720   */\n      0x00\n        /* \"#utility.yul\":9711:9717   */\n      dup3\n        /* \"#utility.yul\":9707:9721   */\n      add\n        /* \"#utility.yul\":9700:9758   */\n      mstore\n        /* \"#utility.yul\":9792:9795   */\n      0x2100000000000000000000000000000000000000000000000000000000000000\n        /* \"#utility.yul\":9787:9789   */\n      0x20\n        /* \"#utility.yul\":9779:9785   */\n      dup3\n        /* \"#utility.yul\":9775:9790   */\n      add\n        /* \"#utility.yul\":9768:9796   */\n      mstore\n        /* \"#utility.yul\":9583:9803   */\n      pop\n      jump\t// out\n        /* \"#utility.yul\":9809:10175   */\n    tag_118:\n        /* \"#utility.yul\":9951:9954   */\n      0x00\n        /* \"#utility.yul\":9972:10039   */\n      tag_253\n        /* \"#utility.yul\":10036:10038   */\n      0x21\n        /* \"#utility.yul\":10031:10034   */\n      dup4\n        /* \"#utility.yul\":9972:10039   */\n      tag_109\n      jump\t// in\n    tag_253:\n        /* \"#utility.yul\":9965:10039   */\n      swap2\n      pop\n        /* \"#utility.yul\":10048:10141   */\n      tag_254\n        /* \"#utility.yul\":10137:10140   */\n      dup3\n        /* \"#utility.yul\":10048:10141   */\n      tag_117\n      jump\t// in\n    tag_254:\n        /* \"#utility.yul\":10166:10168   */\n      0x40\n        /* \"#utility.yul\":10161:10164   */\n      dup3\n        /* \"#utility.yul\":10157:10169   */\n      add\n        /* \"#utility.yul\":10150:10169   */\n      swap1\n      pop\n        /* \"#utility.yul\":9809:10175   */\n      swap2\n      swap1\n      pop\n      jump\t// out\n        /* \"#utility.yul\":10181:10600   */\n    tag_46:\n        /* \"#utility.yul\":10347:10351   */\n      0x00\n        /* \"#utility.yul\":10385:10387   */\n      0x20\n        /* \"#utility.yul\":10374:10383   */\n      dup3\n        /* \"#utility.yul\":10370:10388   */\n      add\n        /* \"#utility.yul\":10362:10388   */\n      swap1\n      pop\n        /* \"#utility.yul\":10434:10443   */\n      dup2\n        /* \"#utility.yul\":10428:10432   */\n      dup2\n        /* \"#utility.yul\":10424:10444   */\n      sub\n        /* \"#utility.yul\":10420:10421   */\n      0x00\n        /* \"#utility.yul\":10409:10418   */\n      dup4\n        /* \"#utility.yul\":10405:10422   */\n      add\n        /* \"#utility.yul\":10398:10445   */\n      mstore\n        /* \"#utility.yul\":10462:10593   */\n      tag_256\n        /* \"#utility.yul\":10588:10592   */\n      dup2\n        /* \"#utility.yul\":10462:10593   */\n      tag_118\n      jump\t// in\n    tag_256:\n        /* \"#utility.yul\":10454:10593   */\n      swap1\n      pop\n        /* \"#utility.yul\":10181:10600   */\n      swap2\n      swap1\n      pop\n      jump\t// out\n        /* \"#utility.yul\":10606:10839   */\n    tag_119:\n        /* \"#utility.yul\":10746:10780   */\n      0x4576656e74206e616d652073686f756c642068617665206d6f7265207468616e\n        /* \"#utility.yul\":10742:10743   */\n      0x00\n        /* \"#utility.yul\":10734:10740   */\n      dup3\n        /* \"#utility.yul\":10730:10744   */\n      add\n        /* \"#utility.yul\":10723:10781   */\n      mstore\n        /* \"#utility.yul\":10815:10831   */\n      0x2033206368617261637465727321000000000000000000000000000000000000\n        /* \"#utility.yul\":10810:10812   */\n      0x20\n        /* \"#utility.yul\":10802:10808   */\n      dup3\n        /* \"#utility.yul\":10798:10813   */\n      add\n        /* \"#utility.yul\":10791:10832   */\n      mstore\n        /* \"#utility.yul\":10606:10839   */\n      pop\n      jump\t// out\n        /* \"#utility.yul\":10845:11211   */\n    tag_120:\n        /* \"#utility.yul\":10987:10990   */\n      0x00\n        /* \"#utility.yul\":11008:11075   */\n      tag_259\n        /* \"#utility.yul\":11072:11074   */\n      0x2e\n        /* \"#utility.yul\":11067:11070   */\n      dup4\n        /* \"#utility.yul\":11008:11075   */\n      tag_109\n      jump\t// in\n    tag_259:\n        /* \"#utility.yul\":11001:11075   */\n      swap2\n      pop\n        /* \"#utility.yul\":11084:11177   */\n      tag_260\n        /* \"#utility.yul\":11173:11176   */\n      dup3\n        /* \"#utility.yul\":11084:11177   */\n      tag_119\n      jump\t// in\n    tag_260:\n        /* \"#utility.yul\":11202:11204   */\n      0x40\n        /* \"#utility.yul\":11197:11200   */\n      dup3\n        /* \"#utility.yul\":11193:11205   */\n      add\n        /* \"#utility.yul\":11186:11205   */\n      swap1\n      pop\n        /* \"#utility.yul\":10845:11211   */\n      swap2\n      swap1\n      pop\n      jump\t// out\n        /* \"#utility.yul\":11217:11636   */\n    tag_49:\n        /* \"#utility.yul\":11383:11387   */\n      0x00\n        /* \"#utility.yul\":11421:11423   */\n      0x20\n        /* \"#utility.yul\":11410:11419   */\n      dup3\n        /* \"#utility.yul\":11406:11424   */\n      add\n        /* \"#utility.yul\":11398:11424   */\n      swap1\n      pop\n        /* \"#utility.yul\":11470:11479   */\n      dup2\n        /* \"#utility.yul\":11464:11468   */\n      dup2\n        /* \"#utility.yul\":11460:11480   */\n      sub\n        /* \"#utility.yul\":11456:11457   */\n      0x00\n        /* \"#utility.yul\":11445:11454   */\n      dup4\n        /* \"#utility.yul\":11441:11458   */\n      add\n        /* \"#utility.yul\":11434:11481   */\n      mstore\n        /* \"#utility.yul\":11498:11629   */\n      tag_262\n        /* \"#utility.yul\":11624:11628   */\n      dup2\n        /* \"#utility.yul\":11498:11629   */\n      tag_120\n      jump\t// in\n    tag_262:\n        /* \"#utility.yul\":11490:11629   */\n      swap1\n      pop\n        /* \"#utility.yul\":11217:11636   */\n      swap2\n      swap1\n      pop\n      jump\t// out\n        /* \"#utility.yul\":11642:11822   */\n    tag_121:\n        /* \"#utility.yul\":11690:11767   */\n      0x4e487b7100000000000000000000000000000000000000000000000000000000\n        /* \"#utility.yul\":11687:11688   */\n      0x00\n        /* \"#utility.yul\":11680:11768   */\n      mstore\n        /* \"#utility.yul\":11787:11791   */\n      0x22\n        /* \"#utility.yul\":11784:11785   */\n      0x04\n        /* \"#utility.yul\":11777:11792   */\n      mstore\n        /* \"#utility.yul\":11811:11815   */\n      0x24\n        /* \"#utility.yul\":11808:11809   */\n      0x00\n        /* \"#utility.yul\":11801:11816   */\n      revert\n        /* \"#utility.yul\":11828:12148   */\n    tag_55:\n        /* \"#utility.yul\":11872:11878   */\n      0x00\n        /* \"#utility.yul\":11909:11910   */\n      0x02\n        /* \"#utility.yul\":11903:11907   */\n      dup3\n        /* \"#utility.yul\":11899:11911   */\n      div\n        /* \"#utility.yul\":11889:11911   */\n      swap1\n      pop\n        /* \"#utility.yul\":11956:11957   */\n      0x01\n        /* \"#utility.yul\":11950:11954   */\n      dup3\n        /* \"#utility.yul\":11946:11958   */\n      and\n        /* \"#utility.yul\":11977:11995   */\n      dup1\n        /* \"#utility.yul\":11967:12048   */\n      tag_265\n      jumpi\n        /* \"#utility.yul\":12033:12037   */\n      0x7f\n        /* \"#utility.yul\":12025:12031   */\n      dup3\n        /* \"#utility.yul\":12021:12038   */\n      and\n        /* \"#utility.yul\":12011:12038   */\n      swap2\n      pop\n        /* \"#utility.yul\":11967:12048   */\n    tag_265:\n        /* \"#utility.yul\":12095:12097   */\n      0x20\n        /* \"#utility.yul\":12087:12093   */\n      dup3\n        /* \"#utility.yul\":12084:12098   */\n      lt\n        /* \"#utility.yul\":12064:12082   */\n      dup2\n        /* \"#utility.yul\":12061:12099   */\n      sub\n        /* \"#utility.yul\":12058:12142   */\n      tag_266\n      jumpi\n        /* \"#utility.yul\":12114:12132   */\n      tag_267\n      tag_121\n      jump\t// in\n    tag_267:\n        /* \"#utility.yul\":12058:12142   */\n    tag_266:\n        /* \"#utility.yul\":11879:12148   */\n      pop\n        /* \"#utility.yul\":11828:12148   */\n      swap2\n      swap1\n      pop\n      jump\t// out\n        /* \"#utility.yul\":12154:12295   */\n    tag_122:\n        /* \"#utility.yul\":12203:12207   */\n      0x00\n        /* \"#utility.yul\":12226:12229   */\n      dup2\n        /* \"#utility.yul\":12218:12229   */\n      swap1\n      pop\n        /* \"#utility.yul\":12249:12252   */\n      dup2\n        /* \"#utility.yul\":12246:12247   */\n      0x00\n        /* \"#utility.yul\":12239:12253   */\n      mstore\n        /* \"#utility.yul\":12283:12287   */\n      0x20\n        /* \"#utility.yul\":12280:12281   */\n      0x00\n        /* \"#utility.yul\":12270:12288   */\n      keccak256\n        /* \"#utility.yul\":12262:12288   */\n      swap1\n      pop\n        /* \"#utility.yul\":12154:12295   */\n      swap2\n      swap1\n      pop\n      jump\t// out\n        /* \"#utility.yul\":12301:12394   */\n    tag_123:\n        /* \"#utility.yul\":12338:12344   */\n      0x00\n        /* \"#utility.yul\":12385:12387   */\n      0x20\n        /* \"#utility.yul\":12380:12382   */\n      0x1f\n        /* \"#utility.yul\":12373:12378   */\n      dup4\n        /* \"#utility.yul\":12369:12383   */\n      add\n        /* \"#utility.yul\":12365:12388   */\n      div\n        /* \"#utility.yul\":12355:12388   */\n      swap1\n      pop\n        /* \"#utility.yul\":12301:12394   */\n      swap2\n      swap1\n      pop\n      jump\t// out\n        /* \"#utility.yul\":12400:12507   */\n    tag_124:\n        /* \"#utility.yul\":12444:12452   */\n      0x00\n        /* \"#utility.yul\":12494:12499   */\n      dup3\n        /* \"#utility.yul\":12488:12492   */\n      dup3\n        /* \"#utility.yul\":12484:12500   */\n      shl\n        /* \"#utility.yul\":12463:12500   */\n      swap1\n      pop\n        /* \"#utility.yul\":12400:12507   */\n      swap3\n      swap2\n      pop\n      pop\n      jump\t// out\n        /* \"#utility.yul\":12513:12906   */\n    tag_125:\n        /* \"#utility.yul\":12582:12588   */\n      0x00\n        /* \"#utility.yul\":12632:12633   */\n      0x08\n        /* \"#utility.yul\":12620:12630   */\n      dup4\n        /* \"#utility.yul\":12616:12634   */\n      mul\n        /* \"#utility.yul\":12655:12752   */\n      tag_272\n        /* \"#utility.yul\":12685:12751   */\n      0xffffffffffffffffffffffffffffffffffffffffffffffffffffffffffffffff\n        /* \"#utility.yul\":12674:12683   */\n      dup3\n        /* \"#utility.yul\":12655:12752   */\n      tag_124\n      jump\t// in\n    tag_272:\n        /* \"#utility.yul\":12773:12812   */\n      tag_273\n        /* \"#utility.yul\":12803:12811   */\n      dup7\n        /* \"#utility.yul\":12792:12801   */\n      dup4\n        /* \"#utility.yul\":12773:12812   */\n      tag_124\n      jump\t// in\n    tag_273:\n        /* \"#utility.yul\":12761:12812   */\n      swap6\n      pop\n        /* \"#utility.yul\":12845:12849   */\n      dup1\n        /* \"#utility.yul\":12841:12850   */\n      not\n        /* \"#utility.yul\":12834:12839   */\n      dup5\n        /* \"#utility.yul\":12830:12851   */\n      and\n        /* \"#utility.yul\":12821:12851   */\n      swap4\n      pop\n        /* \"#utility.yul\":12894:12898   */\n      dup1\n        /* \"#utility.yul\":12884:12892   */\n      dup7\n        /* \"#utility.yul\":12880:12899   */\n      and\n        /* \"#utility.yul\":12873:12878   */\n      dup5\n        /* \"#utility.yul\":12870:12900   */\n      or\n        /* \"#utility.yul\":12860:12900   */\n      swap3\n      pop\n        /* \"#utility.yul\":12589:12906   */\n      pop\n      pop\n        /* \"#utility.yul\":12513:12906   */\n      swap4\n      swap3\n      pop\n      pop\n      pop\n      jump\t// out\n        /* \"#utility.yul\":12912:12972   */\n    tag_126:\n        /* \"#utility.yul\":12940:12943   */\n      0x00\n        /* \"#utility.yul\":12961:12966   */\n      dup2\n        /* \"#utility.yul\":12954:12966   */\n      swap1\n      pop\n        /* \"#utility.yul\":12912:12972   */\n      swap2\n      swap1\n      pop\n      jump\t// out\n        /* \"#utility.yul\":12978:13120   */\n    tag_127:\n        /* \"#utility.yul\":13028:13037   */\n      0x00\n        /* \"#utility.yul\":13061:13114   */\n      tag_276\n        /* \"#utility.yul\":13079:13113   */\n      tag_277\n        /* \"#utility.yul\":13088:13112   */\n      tag_278\n        /* \"#utility.yul\":13106:13111   */\n      dup5\n        /* \"#utility.yul\":13088:13112   */\n      tag_102\n      jump\t// in\n    tag_278:\n        /* \"#utility.yul\":13079:13113   */\n      tag_126\n      jump\t// in\n    tag_277:\n        /* \"#utility.yul\":13061:13114   */\n      tag_102\n      jump\t// in\n    tag_276:\n        /* \"#utility.yul\":13048:13114   */\n      swap1\n      pop\n        /* \"#utility.yul\":12978:13120   */\n      swap2\n      swap1\n      pop\n      jump\t// out\n        /* \"#utility.yul\":13126:13201   */\n    tag_128:\n        /* \"#utility.yul\":13169:13172   */\n      0x00\n        /* \"#utility.yul\":13190:13195   */\n      dup2\n        /* \"#utility.yul\":13183:13195   */\n      swap1\n      pop\n        /* \"#utility.yul\":13126:13201   */\n      swap2\n      swap1\n      pop\n      jump\t// out\n        /* \"#utility.yul\":13207:13476   */\n    tag_129:\n        /* \"#utility.yul\":13317:13356   */\n      tag_281\n        /* \"#utility.yul\":13348:13355   */\n      dup4\n        /* \"#utility.yul\":13317:13356   */\n      tag_127\n      jump\t// in\n    tag_281:\n        /* \"#utility.yul\":13378:13469   */\n      tag_282\n        /* \"#utility.yul\":13427:13468   */\n      tag_283\n        /* \"#utility.yul\":13451:13467   */\n      dup3\n        /* \"#utility.yul\":13427:13468   */\n      tag_128\n      jump\t// in\n    tag_283:\n        /* \"#utility.yul\":13419:13425   */\n      dup5\n        /* \"#utility.yul\":13412:13416   */\n      dup5\n        /* \"#utility.yul\":13406:13417   */\n      sload\n        /* \"#utility.yul\":13378:13469   */\n      tag_125\n      jump\t// in\n    tag_282:\n        /* \"#utility.yul\":13372:13376   */\n      dup3\n        /* \"#utility.yul\":13365:13470   */\n      sstore\n        /* \"#utility.yul\":13283:13476   */\n      pop\n        /* \"#utility.yul\":13207:13476   */\n      pop\n      pop\n      pop\n      jump\t// out\n        /* \"#utility.yul\":13482:13555   */\n    tag_130:\n        /* \"#utility.yul\":13527:13530   */\n      0x00\n        /* \"#utility.yul\":13482:13555   */\n      swap1\n      jump\t// out\n        /* \"#utility.yul\":13561:13750   */\n    tag_131:\n        /* \"#utility.yul\":13638:13670   */\n      tag_286\n      tag_130\n      jump\t// in\n    tag_286:\n        /* \"#utility.yul\":13679:13744   */\n      tag_287\n        /* \"#utility.yul\":13737:13743   */\n      dup2\n        /* \"#utility.yul\":13729:13735   */\n      dup5\n        /* \"#utility.yul\":13723:13727   */\n      dup5\n        /* \"#utility.yul\":13679:13744   */\n      tag_129\n      jump\t// in\n    tag_287:\n        /* \"#utility.yul\":13614:13750   */\n      pop\n        /* \"#utility.yul\":13561:13750   */\n      pop\n      pop\n      jump\t// out\n        /* \"#utility.yul\":13756:13942   */\n    tag_132:\n        /* \"#utility.yul\":13816:13936   */\n    tag_289:\n        /* \"#utility.yul\":13833:13836   */\n      dup2\n        /* \"#utility.yul\":13826:13831   */\n      dup2\n        /* \"#utility.yul\":13823:13837   */\n      lt\n        /* \"#utility.yul\":13816:13936   */\n      iszero\n      tag_291\n      jumpi\n        /* \"#utility.yul\":13887:13926   */\n      tag_292\n        /* \"#utility.yul\":13924:13925   */\n      0x00\n        /* \"#utility.yul\":13917:13922   */\n      dup3\n        /* \"#utility.yul\":13887:13926   */\n      tag_131\n      jump\t// in\n    tag_292:\n        /* \"#utility.yul\":13860:13861   */\n      0x01\n        /* \"#utility.yul\":13853:13858   */\n      dup2\n        /* \"#utility.yul\":13849:13862   */\n      add\n        /* \"#utility.yul\":13840:13862   */\n      swap1\n      pop\n        /* \"#utility.yul\":13816:13936   */\n      jump(tag_289)\n    tag_291:\n        /* \"#utility.yul\":13756:13942   */\n      pop\n      pop\n      jump\t// out\n        /* \"#utility.yul\":13948:14491   */\n    tag_133:\n        /* \"#utility.yul\":14049:14051   */\n      0x1f\n        /* \"#utility.yul\":14044:14047   */\n      dup3\n        /* \"#utility.yul\":14041:14052   */\n      gt\n        /* \"#utility.yul\":14038:14484   */\n      iszero\n      tag_294\n      jumpi\n        /* \"#utility.yul\":14083:14121   */\n      tag_295\n        /* \"#utility.yul\":14115:14120   */\n      dup2\n        /* \"#utility.yul\":14083:14121   */\n      tag_122\n      jump\t// in\n    tag_295:\n        /* \"#utility.yul\":14167:14196   */\n      tag_296\n        /* \"#utility.yul\":14185:14195   */\n      dup5\n        /* \"#utility.yul\":14167:14196   */\n      tag_123\n      jump\t// in\n    tag_296:\n        /* \"#utility.yul\":14157:14165   */\n      dup2\n        /* \"#utility.yul\":14153:14197   */\n      add\n        /* \"#utility.yul\":14350:14352   */\n      0x20\n        /* \"#utility.yul\":14338:14348   */\n      dup6\n        /* \"#utility.yul\":14335:14353   */\n      lt\n        /* \"#utility.yul\":14332:14381   */\n      iszero\n      tag_297\n      jumpi\n        /* \"#utility.yul\":14371:14379   */\n      dup2\n        /* \"#utility.yul\":14356:14379   */\n      swap1\n      pop\n        /* \"#utility.yul\":14332:14381   */\n    tag_297:\n        /* \"#utility.yul\":14394:14474   */\n      tag_298\n        /* \"#utility.yul\":14450:14472   */\n      tag_299\n        /* \"#utility.yul\":14468:14471   */\n      dup6\n        /* \"#utility.yul\":14450:14472   */\n      tag_123\n      jump\t// in\n    tag_299:\n        /* \"#utility.yul\":14440:14448   */\n      dup4\n        /* \"#utility.yul\":14436:14473   */\n      add\n        /* \"#utility.yul\":14423:14434   */\n      dup3\n        /* \"#utility.yul\":14394:14474   */\n      tag_132\n      jump\t// in\n    tag_298:\n        /* \"#utility.yul\":14053:14484   */\n      pop\n      pop\n        /* \"#utility.yul\":14038:14484   */\n    tag_294:\n        /* \"#utility.yul\":13948:14491   */\n      pop\n      pop\n      pop\n      jump\t// out\n        /* \"#utility.yul\":14497:14614   */\n    tag_134:\n        /* \"#utility.yul\":14551:14559   */\n      0x00\n        /* \"#utility.yul\":14601:14606   */\n      dup3\n        /* \"#utility.yul\":14595:14599   */\n      dup3\n        /* \"#utility.yul\":14591:14607   */\n      shr\n        /* \"#utility.yul\":14570:14607   */\n      swap1\n      pop\n        /* \"#utility.yul\":14497:14614   */\n      swap3\n      swap2\n      pop\n      pop\n      jump\t// out\n        /* \"#utility.yul\":14620:14789   */\n    tag_135:\n        /* \"#utility.yul\":14664:14670   */\n      0x00\n        /* \"#utility.yul\":14697:14748   */\n      tag_302\n        /* \"#utility.yul\":14745:14746   */\n      0x00\n        /* \"#utility.yul\":14741:14747   */\n      not\n        /* \"#utility.yul\":14733:14738   */\n      dup5\n        /* \"#utility.yul\":14730:14731   */\n      0x08\n        /* \"#utility.yul\":14726:14739   */\n      mul\n        /* \"#utility.yul\":14697:14748   */\n      tag_134\n      jump\t// in\n    tag_302:\n        /* \"#utility.yul\":14693:14749   */\n      not\n        /* \"#utility.yul\":14778:14782   */\n      dup1\n        /* \"#utility.yul\":14772:14776   */\n      dup4\n        /* \"#utility.yul\":14768:14783   */\n      and\n        /* \"#utility.yul\":14758:14783   */\n      swap2\n      pop\n        /* \"#utility.yul\":14671:14789   */\n      pop\n        /* \"#utility.yul\":14620:14789   */\n      swap3\n      swap2\n      pop\n      pop\n      jump\t// out\n        /* \"#utility.yul\":14794:15089   */\n    tag_136:\n        /* \"#utility.yul\":14870:14874   */\n      0x00\n        /* \"#utility.yul\":15016:15045   */\n      tag_304\n        /* \"#utility.yul\":15041:15044   */\n      dup4\n        /* \"#utility.yul\":15035:15039   */\n      dup4\n        /* \"#utility.yul\":15016:15045   */\n      tag_135\n      jump\t// in\n    tag_304:\n        /* \"#utility.yul\":15008:15045   */\n      swap2\n      pop\n        /* \"#utility.yul\":15078:15081   */\n      dup3\n        /* \"#utility.yul\":15075:15076   */\n      0x02\n        /* \"#utility.yul\":15071:15082   */\n      mul\n        /* \"#utility.yul\":15065:15069   */\n      dup3\n        /* \"#utility.yul\":15062:15083   */\n      or\n        /* \"#utility.yul\":15054:15083   */\n      swap1\n      pop\n        /* \"#utility.yul\":14794:15089   */\n      swap3\n      swap2\n      pop\n      pop\n      jump\t// out\n        /* \"#utility.yul\":15094:16489   */\n    tag_51:\n        /* \"#utility.yul\":15211:15248   */\n      tag_306\n        /* \"#utility.yul\":15244:15247   */\n      dup3\n        /* \"#utility.yul\":15211:15248   */\n      tag_108\n      jump\t// in\n    tag_306:\n        /* \"#utility.yul\":15313:15331   */\n      0xffffffffffffffff\n        /* \"#utility.yul\":15305:15311   */\n      dup2\n        /* \"#utility.yul\":15302:15332   */\n      gt\n        /* \"#utility.yul\":15299:15355   */\n      iszero\n      tag_307\n      jumpi\n        /* \"#utility.yul\":15335:15353   */\n      tag_308\n      tag_95\n      jump\t// in\n    tag_308:\n        /* \"#utility.yul\":15299:15355   */\n    tag_307:\n        /* \"#utility.yul\":15379:15417   */\n      tag_309\n        /* \"#utility.yul\":15411:15415   */\n      dup3\n        /* \"#utility.yul\":15405:15416   */\n      sload\n        /* \"#utility.yul\":15379:15417   */\n      tag_55\n      jump\t// in\n    tag_309:\n        /* \"#utility.yul\":15464:15531   */\n      tag_310\n        /* \"#utility.yul\":15524:15530   */\n      dup3\n        /* \"#utility.yul\":15516:15522   */\n      dup3\n        /* \"#utility.yul\":15510:15514   */\n      dup6\n        /* \"#utility.yul\":15464:15531   */\n      tag_133\n      jump\t// in\n    tag_310:\n        /* \"#utility.yul\":15558:15559   */\n      0x00\n        /* \"#utility.yul\":15582:15586   */\n      0x20\n        /* \"#utility.yul\":15569:15586   */\n      swap1\n      pop\n        /* \"#utility.yul\":15614:15616   */\n      0x1f\n        /* \"#utility.yul\":15606:15612   */\n      dup4\n        /* \"#utility.yul\":15603:15617   */\n      gt\n        /* \"#utility.yul\":15631:15632   */\n      0x01\n        /* \"#utility.yul\":15626:16244   */\n      dup2\n      eq\n      tag_312\n      jumpi\n        /* \"#utility.yul\":16288:16289   */\n      0x00\n        /* \"#utility.yul\":16305:16311   */\n      dup5\n        /* \"#utility.yul\":16302:16379   */\n      iszero\n      tag_313\n      jumpi\n        /* \"#utility.yul\":16354:16363   */\n      dup3\n        /* \"#utility.yul\":16349:16352   */\n      dup8\n        /* \"#utility.yul\":16345:16364   */\n      add\n        /* \"#utility.yul\":16339:16365   */\n      mload\n        /* \"#utility.yul\":16330:16365   */\n      swap1\n      pop\n        /* \"#utility.yul\":16302:16379   */\n    tag_313:\n        /* \"#utility.yul\":16405:16472   */\n      tag_314\n        /* \"#utility.yul\":16465:16471   */\n      dup6\n        /* \"#utility.yul\":16458:16463   */\n      dup3\n        /* \"#utility.yul\":16405:16472   */\n      tag_136\n      jump\t// in\n    tag_314:\n        /* \"#utility.yul\":16399:16403   */\n      dup7\n        /* \"#utility.yul\":16392:16473   */\n      sstore\n        /* \"#utility.yul\":16261:16483   */\n      pop\n        /* \"#utility.yul\":15596:16483   */\n      jump(tag_311)\n        /* \"#utility.yul\":15626:16244   */\n    tag_312:\n        /* \"#utility.yul\":15678:15682   */\n      0x1f\n        /* \"#utility.yul\":15674:15683   */\n      not\n        /* \"#utility.yul\":15666:15672   */\n      dup5\n        /* \"#utility.yul\":15662:15684   */\n      and\n        /* \"#utility.yul\":15712:15749   */\n      tag_315\n        /* \"#utility.yul\":15744:15748   */\n      dup7\n        /* \"#utility.yul\":15712:15749   */\n      tag_122\n      jump\t// in\n    tag_315:\n        /* \"#utility.yul\":15771:15772   */\n      0x00\n        /* \"#utility.yul\":15785:15993   */\n    tag_316:\n        /* \"#utility.yul\":15799:15806   */\n      dup3\n        /* \"#utility.yul\":15796:15797   */\n      dup2\n        /* \"#utility.yul\":15793:15807   */\n      lt\n        /* \"#utility.yul\":15785:15993   */\n      iszero\n      tag_318\n      jumpi\n        /* \"#utility.yul\":15878:15887   */\n      dup5\n        /* \"#utility.yul\":15873:15876   */\n      dup10\n        /* \"#utility.yul\":15869:15888   */\n      add\n        /* \"#utility.yul\":15863:15889   */\n      mload\n        /* \"#utility.yul\":15855:15861   */\n      dup3\n        /* \"#utility.yul\":15848:15890   */\n      sstore\n        /* \"#utility.yul\":15929:15930   */\n      0x01\n        /* \"#utility.yul\":15921:15927   */\n      dup3\n        /* \"#utility.yul\":15917:15931   */\n      add\n        /* \"#utility.yul\":15907:15931   */\n      swap2\n      pop\n        /* \"#utility.yul\":15976:15978   */\n      0x20\n        /* \"#utility.yul\":15965:15974   */\n      dup6\n        /* \"#utility.yul\":15961:15979   */\n      add\n        /* \"#utility.yul\":15948:15979   */\n      swap5\n      pop\n        /* \"#utility.yul\":15822:15826   */\n      0x20\n        /* \"#utility.yul\":15819:15820   */\n      dup2\n        /* \"#utility.yul\":15815:15827   */\n      add\n        /* \"#utility.yul\":15810:15827   */\n      swap1\n      pop\n        /* \"#utility.yul\":15785:15993   */\n      jump(tag_316)\n    tag_318:\n        /* \"#utility.yul\":16021:16027   */\n      dup7\n        /* \"#utility.yul\":16012:16019   */\n      dup4\n        /* \"#utility.yul\":16009:16028   */\n      lt\n        /* \"#utility.yul\":16006:16185   */\n      iszero\n      tag_319\n      jumpi\n        /* \"#utility.yul\":16079:16088   */\n      dup5\n        /* \"#utility.yul\":16074:16077   */\n      dup10\n        /* \"#utility.yul\":16070:16089   */\n      add\n        /* \"#utility.yul\":16064:16090   */\n      mload\n        /* \"#utility.yul\":16122:16170   */\n      tag_320\n        /* \"#utility.yul\":16164:16168   */\n      0x1f\n        /* \"#utility.yul\":16156:16162   */\n      dup10\n        /* \"#utility.yul\":16152:16169   */\n      and\n        /* \"#utility.yul\":16141:16150   */\n      dup3\n        /* \"#utility.yul\":16122:16170   */\n      tag_135\n      jump\t// in\n    tag_320:\n        /* \"#utility.yul\":16114:16120   */\n      dup4\n        /* \"#utility.yul\":16107:16171   */\n      sstore\n        /* \"#utility.yul\":16029:16185   */\n      pop\n        /* \"#utility.yul\":16006:16185   */\n    tag_319:\n        /* \"#utility.yul\":16231:16232   */\n      0x01\n        /* \"#utility.yul\":16227:16228   */\n      0x02\n        /* \"#utility.yul\":16219:16225   */\n      dup9\n        /* \"#utility.yul\":16215:16229   */\n      mul\n        /* \"#utility.yul\":16211:16233   */\n      add\n        /* \"#utility.yul\":16205:16209   */\n      dup9\n        /* \"#utility.yul\":16198:16234   */\n      sstore\n        /* \"#utility.yul\":15633:16244   */\n      pop\n      pop\n      pop\n        /* \"#utility.yul\":15596:16483   */\n    tag_311:\n      pop\n        /* \"#utility.yul\":15186:16489   */\n      pop\n      pop\n      pop\n        /* \"#utility.yul\":15094:16489   */\n      pop\n      pop\n      jump\t// out\n        /* \"#utility.yul\":16495:16675   */\n    tag_137:\n        /* \"#utility.yul\":16543:16620   */\n      0x4e487b7100000000000000000000000000000000000000000000000000000000\n        /* \"#utility.yul\":16540:16541   */\n      0x00\n        /* \"#utility.yul\":16533:16621   */\n      mstore\n        /* \"#utility.yul\":16640:16644   */\n      0x11\n        /* \"#utility.yul\":16637:16638   */\n      0x04\n        /* \"#utility.yul\":16630:16645   */\n      mstore\n        /* \"#utility.yul\":16664:16668   */\n      0x24\n        /* \"#utility.yul\":16661:16662   */\n      0x00\n        /* \"#utility.yul\":16654:16669   */\n      revert\n        /* \"#utility.yul\":16681:16914   */\n    tag_53:\n        /* \"#utility.yul\":16720:16723   */\n      0x00\n        /* \"#utility.yul\":16743:16767   */\n      tag_323\n        /* \"#utility.yul\":16761:16766   */\n      dup3\n        /* \"#utility.yul\":16743:16767   */\n      tag_102\n      jump\t// in\n    tag_323:\n        /* \"#utility.yul\":16734:16767   */\n      swap2\n      pop\n        /* \"#utility.yul\":16789:16855   */\n      0xffffffffffffffffffffffffffffffffffffffffffffffffffffffffffffffff\n        /* \"#utility.yul\":16782:16787   */\n      dup3\n        /* \"#utility.yul\":16779:16856   */\n      sub\n        /* \"#utility.yul\":16776:16879   */\n      tag_324\n      jumpi\n        /* \"#utility.yul\":16859:16877   */\n      tag_325\n      tag_137\n      jump\t// in\n    tag_325:\n        /* \"#utility.yul\":16776:16879   */\n    tag_324:\n        /* \"#utility.yul\":16906:16907   */\n      0x01\n        /* \"#utility.yul\":16899:16904   */\n      dup3\n        /* \"#utility.yul\":16895:16908   */\n      add\n        /* \"#utility.yul\":16888:16908   */\n      swap1\n      pop\n        /* \"#utility.yul\":16681:16914   */\n      swap2\n      swap1\n      pop\n      jump\t// out\n        /* \"#utility.yul\":16920:17096   */\n    tag_138:\n        /* \"#utility.yul\":17060:17088   */\n      0x54686973206576656e7420646f6573206e6f7420657869747321000000000000\n        /* \"#utility.yul\":17056:17057   */\n      0x00\n        /* \"#utility.yul\":17048:17054   */\n      dup3\n        /* \"#utility.yul\":17044:17058   */\n      add\n        /* \"#utility.yul\":17037:17089   */\n      mstore\n        /* \"#utility.yul\":16920:17096   */\n      pop\n      jump\t// out\n        /* \"#utility.yul\":17102:17468   */\n    tag_139:\n        /* \"#utility.yul\":17244:17247   */\n      0x00\n        /* \"#utility.yul\":17265:17332   */\n      tag_328\n        /* \"#utility.yul\":17329:17331   */\n      0x1a\n        /* \"#utility.yul\":17324:17327   */\n      dup4\n        /* \"#utility.yul\":17265:17332   */\n      tag_109\n      jump\t// in\n    tag_328:\n        /* \"#utility.yul\":17258:17332   */\n      swap2\n      pop\n        /* \"#utility.yul\":17341:17434   */\n      tag_329\n        /* \"#utility.yul\":17430:17433   */\n      dup3\n        /* \"#utility.yul\":17341:17434   */\n      tag_138\n      jump\t// in\n    tag_329:\n        /* \"#utility.yul\":17459:17461   */\n      0x20\n        /* \"#utility.yul\":17454:17457   */\n      dup3\n        /* \"#utility.yul\":17450:17462   */\n      add\n        /* \"#utility.yul\":17443:17462   */\n      swap1\n      pop\n        /* \"#utility.yul\":17102:17468   */\n      swap2\n      swap1\n      pop\n      jump\t// out\n        /* \"#utility.yul\":17474:17893   */\n    tag_63:\n        /* \"#utility.yul\":17640:17644   */\n      0x00\n        /* \"#utility.yul\":17678:17680   */\n      0x20\n        /* \"#utility.yul\":17667:17676   */\n      dup3\n        /* \"#utility.yul\":17663:17681   */\n      add\n        /* \"#utility.yul\":17655:17681   */\n      swap1\n      pop\n        /* \"#utility.yul\":17727:17736   */\n      dup2\n        /* \"#utility.yul\":17721:17725   */\n      dup2\n        /* \"#utility.yul\":17717:17737   */\n      sub\n        /* \"#utility.yul\":17713:17714   */\n      0x00\n        /* \"#utility.yul\":17702:17711   */\n      dup4\n        /* \"#utility.yul\":17698:17715   */\n      add\n        /* \"#utility.yul\":17691:17738   */\n      mstore\n        /* \"#utility.yul\":17755:17886   */\n      tag_331\n        /* \"#utility.yul\":17881:17885   */\n      dup2\n        /* \"#utility.yul\":17755:17886   */\n      tag_139\n      jump\t// in\n    tag_331:\n        /* \"#utility.yul\":17747:17886   */\n      swap1\n      pop\n        /* \"#utility.yul\":17474:17893   */\n      swap2\n      swap1\n      pop\n      jump\t// out\n        /* \"#utility.yul\":17899:18077   */\n    tag_140:\n        /* \"#utility.yul\":18039:18069   */\n      0x536f727279212054686973206576656e742068617320656e6465642100000000\n        /* \"#utility.yul\":18035:18036   */\n      0x00\n        /* \"#utility.yul\":18027:18033   */\n      dup3\n        /* \"#utility.yul\":18023:18037   */\n      add\n        /* \"#utility.yul\":18016:18070   */\n      mstore\n        /* \"#utility.yul\":17899:18077   */\n      pop\n      jump\t// out\n        /* \"#utility.yul\":18083:18449   */\n    tag_141:\n        /* \"#utility.yul\":18225:18228   */\n      0x00\n        /* \"#utility.yul\":18246:18313   */\n      tag_334\n        /* \"#utility.yul\":18310:18312   */\n      0x1c\n        /* \"#utility.yul\":18305:18308   */\n      dup4\n        /* \"#utility.yul\":18246:18313   */\n      tag_109\n      jump\t// in\n    tag_334:\n        /* \"#utility.yul\":18239:18313   */\n      swap2\n      pop\n        /* \"#utility.yul\":18322:18415   */\n      tag_335\n        /* \"#utility.yul\":18411:18414   */\n      dup3\n        /* \"#utility.yul\":18322:18415   */\n      tag_140\n      jump\t// in\n    tag_335:\n        /* \"#utility.yul\":18440:18442   */\n      0x20\n        /* \"#utility.yul\":18435:18438   */\n      dup3\n        /* \"#utility.yul\":18431:18443   */\n      add\n        /* \"#utility.yul\":18424:18443   */\n      swap1\n      pop\n        /* \"#utility.yul\":18083:18449   */\n      swap2\n      swap1\n      pop\n      jump\t// out\n        /* \"#utility.yul\":18455:18874   */\n    tag_66:\n        /* \"#utility.yul\":18621:18625   */\n      0x00\n        /* \"#utility.yul\":18659:18661   */\n      0x20\n        /* \"#utility.yul\":18648:18657   */\n      dup3\n        /* \"#utility.yul\":18644:18662   */\n      add\n        /* \"#utility.yul\":18636:18662   */\n      swap1\n      pop\n        /* \"#utility.yul\":18708:18717   */\n      dup2\n        /* \"#utility.yul\":18702:18706   */\n      dup2\n        /* \"#utility.yul\":18698:18718   */\n      sub\n        /* \"#utility.yul\":18694:18695   */\n      0x00\n        /* \"#utility.yul\":18683:18692   */\n      dup4\n        /* \"#utility.yul\":18679:18696   */\n      add\n        /* \"#utility.yul\":18672:18719   */\n      mstore\n        /* \"#utility.yul\":18736:18867   */\n      tag_337\n        /* \"#utility.yul\":18862:18866   */\n      dup2\n        /* \"#utility.yul\":18736:18867   */\n      tag_141\n      jump\t// in\n    tag_337:\n        /* \"#utility.yul\":18728:18867   */\n      swap1\n      pop\n        /* \"#utility.yul\":18455:18874   */\n      swap2\n      swap1\n      pop\n      jump\t// out\n        /* \"#utility.yul\":18880:19110   */\n    tag_142:\n        /* \"#utility.yul\":19020:19054   */\n      0x596f7520646f206e6f74206861766520656e6f756768207469636b6574732074\n        /* \"#utility.yul\":19016:19017   */\n      0x00\n        /* \"#utility.yul\":19008:19014   */\n      dup3\n        /* \"#utility.yul\":19004:19018   */\n      add\n        /* \"#utility.yul\":18997:19055   */\n      mstore\n        /* \"#utility.yul\":19089:19102   */\n      0x6f207472616e7366657221000000000000000000000000000000000000000000\n        /* \"#utility.yul\":19084:19086   */\n      0x20\n        /* \"#utility.yul\":19076:19082   */\n      dup3\n        /* \"#utility.yul\":19072:19087   */\n      add\n        /* \"#utility.yul\":19065:19103   */\n      mstore\n        /* \"#utility.yul\":18880:19110   */\n      pop\n      jump\t// out\n        /* \"#utility.yul\":19116:19482   */\n    tag_143:\n        /* \"#utility.yul\":19258:19261   */\n      0x00\n        /* \"#utility.yul\":19279:19346   */\n      tag_340\n        /* \"#utility.yul\":19343:19345   */\n      0x2b\n        /* \"#utility.yul\":19338:19341   */\n      dup4\n        /* \"#utility.yul\":19279:19346   */\n      tag_109\n      jump\t// in\n    tag_340:\n        /* \"#utility.yul\":19272:19346   */\n      swap2\n      pop\n        /* \"#utility.yul\":19355:19448   */\n      tag_341\n        /* \"#utility.yul\":19444:19447   */\n      dup3\n        /* \"#utility.yul\":19355:19448   */\n      tag_142\n      jump\t// in\n    tag_341:\n        /* \"#utility.yul\":19473:19475   */\n      0x40\n        /* \"#utility.yul\":19468:19471   */\n      dup3\n        /* \"#utility.yul\":19464:19476   */\n      add\n        /* \"#utility.yul\":19457:19476   */\n      swap1\n      pop\n        /* \"#utility.yul\":19116:19482   */\n      swap2\n      swap1\n      pop\n      jump\t// out\n        /* \"#utility.yul\":19488:19907   */\n    tag_69:\n        /* \"#utility.yul\":19654:19658   */\n      0x00\n        /* \"#utility.yul\":19692:19694   */\n      0x20\n        /* \"#utility.yul\":19681:19690   */\n      dup3\n        /* \"#utility.yul\":19677:19695   */\n      add\n        /* \"#utility.yul\":19669:19695   */\n      swap1\n      pop\n        /* \"#utility.yul\":19741:19750   */\n      dup2\n        /* \"#utility.yul\":19735:19739   */\n      dup2\n        /* \"#utility.yul\":19731:19751   */\n      sub\n        /* \"#utility.yul\":19727:19728   */\n      0x00\n        /* \"#utility.yul\":19716:19725   */\n      dup4\n        /* \"#utility.yul\":19712:19729   */\n      add\n        /* \"#utility.yul\":19705:19752   */\n      mstore\n        /* \"#utility.yul\":19769:19900   */\n      tag_343\n        /* \"#utility.yul\":19895:19899   */\n      dup2\n        /* \"#utility.yul\":19769:19900   */\n      tag_143\n      jump\t// in\n    tag_343:\n        /* \"#utility.yul\":19761:19900   */\n      swap1\n      pop\n        /* \"#utility.yul\":19488:19907   */\n      swap2\n      swap1\n      pop\n      jump\t// out\n        /* \"#utility.yul\":19913:20107   */\n    tag_71:\n        /* \"#utility.yul\":19953:19957   */\n      0x00\n        /* \"#utility.yul\":19973:19993   */\n      tag_345\n        /* \"#utility.yul\":19991:19992   */\n      dup3\n        /* \"#utility.yul\":19973:19993   */\n      tag_102\n      jump\t// in\n    tag_345:\n        /* \"#utility.yul\":19968:19993   */\n      swap2\n      pop\n        /* \"#utility.yul\":20007:20027   */\n      tag_346\n        /* \"#utility.yul\":20025:20026   */\n      dup4\n        /* \"#utility.yul\":20007:20027   */\n      tag_102\n      jump\t// in\n    tag_346:\n        /* \"#utility.yul\":20002:20027   */\n      swap3\n      pop\n        /* \"#utility.yul\":20051:20052   */\n      dup3\n        /* \"#utility.yul\":20048:20049   */\n      dup3\n        /* \"#utility.yul\":20044:20053   */\n      sub\n        /* \"#utility.yul\":20036:20053   */\n      swap1\n      pop\n        /* \"#utility.yul\":20075:20076   */\n      dup2\n        /* \"#utility.yul\":20069:20073   */\n      dup2\n        /* \"#utility.yul\":20066:20077   */\n      gt\n        /* \"#utility.yul\":20063:20100   */\n      iszero\n      tag_347\n      jumpi\n        /* \"#utility.yul\":20080:20098   */\n      tag_348\n      tag_137\n      jump\t// in\n    tag_348:\n        /* \"#utility.yul\":20063:20100   */\n    tag_347:\n        /* \"#utility.yul\":19913:20107   */\n      swap3\n      swap2\n      pop\n      pop\n      jump\t// out\n        /* \"#utility.yul\":20113:20304   */\n    tag_73:\n        /* \"#utility.yul\":20153:20156   */\n      0x00\n        /* \"#utility.yul\":20172:20192   */\n      tag_350\n        /* \"#utility.yul\":20190:20191   */\n      dup3\n        /* \"#utility.yul\":20172:20192   */\n      tag_102\n      jump\t// in\n    tag_350:\n        /* \"#utility.yul\":20167:20192   */\n      swap2\n      pop\n        /* \"#utility.yul\":20206:20226   */\n      tag_351\n        /* \"#utility.yul\":20224:20225   */\n      dup4\n        /* \"#utility.yul\":20206:20226   */\n      tag_102\n      jump\t// in\n    tag_351:\n        /* \"#utility.yul\":20201:20226   */\n      swap3\n      pop\n        /* \"#utility.yul\":20249:20250   */\n      dup3\n        /* \"#utility.yul\":20246:20247   */\n      dup3\n        /* \"#utility.yul\":20242:20251   */\n      add\n        /* \"#utility.yul\":20235:20251   */\n      swap1\n      pop\n        /* \"#utility.yul\":20270:20273   */\n      dup1\n        /* \"#utility.yul\":20267:20268   */\n      dup3\n        /* \"#utility.yul\":20264:20274   */\n      gt\n        /* \"#utility.yul\":20261:20297   */\n      iszero\n      tag_352\n      jumpi\n        /* \"#utility.yul\":20277:20295   */\n      tag_353\n      tag_137\n      jump\t// in\n    tag_353:\n        /* \"#utility.yul\":20261:20297   */\n    tag_352:\n        /* \"#utility.yul\":20113:20304   */\n      swap3\n      swap2\n      pop\n      pop\n      jump\t// out\n        /* \"#utility.yul\":20310:20720   */\n    tag_80:\n        /* \"#utility.yul\":20350:20357   */\n      0x00\n        /* \"#utility.yul\":20373:20393   */\n      tag_355\n        /* \"#utility.yul\":20391:20392   */\n      dup3\n        /* \"#utility.yul\":20373:20393   */\n      tag_102\n      jump\t// in\n    tag_355:\n        /* \"#utility.yul\":20368:20393   */\n      swap2\n      pop\n        /* \"#utility.yul\":20407:20427   */\n      tag_356\n        /* \"#utility.yul\":20425:20426   */\n      dup4\n        /* \"#utility.yul\":20407:20427   */\n      tag_102\n      jump\t// in\n    tag_356:\n        /* \"#utility.yul\":20402:20427   */\n      swap3\n      pop\n        /* \"#utility.yul\":20462:20463   */\n      dup3\n        /* \"#utility.yul\":20459:20460   */\n      dup3\n        /* \"#utility.yul\":20455:20464   */\n      mul\n        /* \"#utility.yul\":20484:20514   */\n      tag_357\n        /* \"#utility.yul\":20502:20513   */\n      dup2\n        /* \"#utility.yul\":20484:20514   */\n      tag_102\n      jump\t// in\n    tag_357:\n        /* \"#utility.yul\":20473:20514   */\n      swap2\n      pop\n        /* \"#utility.yul\":20663:20664   */\n      dup3\n        /* \"#utility.yul\":20654:20661   */\n      dup3\n        /* \"#utility.yul\":20650:20665   */\n      div\n        /* \"#utility.yul\":20647:20648   */\n      dup5\n        /* \"#utility.yul\":20644:20666   */\n      eq\n        /* \"#utility.yul\":20624:20625   */\n      dup4\n        /* \"#utility.yul\":20617:20626   */\n      iszero\n        /* \"#utility.yul\":20597:20680   */\n      or\n        /* \"#utility.yul\":20574:20713   */\n      tag_358\n      jumpi\n        /* \"#utility.yul\":20693:20711   */\n      tag_359\n      tag_137\n      jump\t// in\n    tag_359:\n        /* \"#utility.yul\":20574:20713   */\n    tag_358:\n        /* \"#utility.yul\":20358:20720   */\n      pop\n        /* \"#utility.yul\":20310:20720   */\n      swap3\n      swap2\n      pop\n      pop\n      jump\t// out\n        /* \"#utility.yul\":20726:20895   */\n    tag_144:\n        /* \"#utility.yul\":20866:20887   */\n      0x496e73756666696369656e742045746865722100000000000000000000000000\n        /* \"#utility.yul\":20862:20863   */\n      0x00\n        /* \"#utility.yul\":20854:20860   */\n      dup3\n        /* \"#utility.yul\":20850:20864   */\n      add\n        /* \"#utility.yul\":20843:20888   */\n      mstore\n        /* \"#utility.yul\":20726:20895   */\n      pop\n      jump\t// out\n        /* \"#utility.yul\":20901:21267   */\n    tag_145:\n        /* \"#utility.yul\":21043:21046   */\n      0x00\n        /* \"#utility.yul\":21064:21131   */\n      tag_362\n        /* \"#utility.yul\":21128:21130   */\n      0x13\n        /* \"#utility.yul\":21123:21126   */\n      dup4\n        /* \"#utility.yul\":21064:21131   */\n      tag_109\n      jump\t// in\n    tag_362:\n        /* \"#utility.yul\":21057:21131   */\n      swap2\n      pop\n        /* \"#utility.yul\":21140:21233   */\n      tag_363\n        /* \"#utility.yul\":21229:21232   */\n      dup3\n        /* \"#utility.yul\":21140:21233   */\n      tag_144\n      jump\t// in\n    tag_363:\n        /* \"#utility.yul\":21258:21260   */\n      0x20\n        /* \"#utility.yul\":21253:21256   */\n      dup3\n        /* \"#utility.yul\":21249:21261   */\n      add\n        /* \"#utility.yul\":21242:21261   */\n      swap1\n      pop\n        /* \"#utility.yul\":20901:21267   */\n      swap2\n      swap1\n      pop\n      jump\t// out\n        /* \"#utility.yul\":21273:21692   */\n    tag_83:\n        /* \"#utility.yul\":21439:21443   */\n      0x00\n        /* \"#utility.yul\":21477:21479   */\n      0x20\n        /* \"#utility.yul\":21466:21475   */\n      dup3\n        /* \"#utility.yul\":21462:21480   */\n      add\n        /* \"#utility.yul\":21454:21480   */\n      swap1\n      pop\n        /* \"#utility.yul\":21526:21535   */\n      dup2\n        /* \"#utility.yul\":21520:21524   */\n      dup2\n        /* \"#utility.yul\":21516:21536   */\n      sub\n        /* \"#utility.yul\":21512:21513   */\n      0x00\n        /* \"#utility.yul\":21501:21510   */\n      dup4\n        /* \"#utility.yul\":21497:21514   */\n      add\n        /* \"#utility.yul\":21490:21537   */\n      mstore\n        /* \"#utility.yul\":21554:21685   */\n      tag_365\n        /* \"#utility.yul\":21680:21684   */\n      dup2\n        /* \"#utility.yul\":21554:21685   */\n      tag_145\n      jump\t// in\n    tag_365:\n        /* \"#utility.yul\":21546:21685   */\n      swap1\n      pop\n        /* \"#utility.yul\":21273:21692   */\n      swap2\n      swap1\n      pop\n      jump\t// out\n        /* \"#utility.yul\":21698:21877   */\n    tag_146:\n        /* \"#utility.yul\":21838:21869   */\n      0x536f72727921205469636b657473206e6f7420617661696c61626c6521000000\n        /* \"#utility.yul\":21834:21835   */\n      0x00\n        /* \"#utility.yul\":21826:21832   */\n      dup3\n        /* \"#utility.yul\":21822:21836   */\n      add\n        /* \"#utility.yul\":21815:21870   */\n      mstore\n        /* \"#utility.yul\":21698:21877   */\n      pop\n      jump\t// out\n        /* \"#utility.yul\":21883:22249   */\n    tag_147:\n        /* \"#utility.yul\":22025:22028   */\n      0x00\n        /* \"#utility.yul\":22046:22113   */\n      tag_368\n        /* \"#utility.yul\":22110:22112   */\n      0x1d\n        /* \"#utility.yul\":22105:22108   */\n      dup4\n        /* \"#utility.yul\":22046:22113   */\n      tag_109\n      jump\t// in\n    tag_368:\n        /* \"#utility.yul\":22039:22113   */\n      swap2\n      pop\n        /* \"#utility.yul\":22122:22215   */\n      tag_369\n        /* \"#utility.yul\":22211:22214   */\n      dup3\n        /* \"#utility.yul\":22122:22215   */\n      tag_146\n      jump\t// in\n    tag_369:\n        /* \"#utility.yul\":22240:22242   */\n      0x20\n        /* \"#utility.yul\":22235:22238   */\n      dup3\n        /* \"#utility.yul\":22231:22243   */\n      add\n        /* \"#utility.yul\":22224:22243   */\n      swap1\n      pop\n        /* \"#utility.yul\":21883:22249   */\n      swap2\n      swap1\n      pop\n      jump\t// out\n        /* \"#utility.yul\":22255:22674   */\n    tag_86:\n        /* \"#utility.yul\":22421:22425   */\n      0x00\n        /* \"#utility.yul\":22459:22461   */\n      0x20\n        /* \"#utility.yul\":22448:22457   */\n      dup3\n        /* \"#utility.yul\":22444:22462   */\n      add\n        /* \"#utility.yul\":22436:22462   */\n      swap1\n      pop\n        /* \"#utility.yul\":22508:22517   */\n      dup2\n        /* \"#utility.yul\":22502:22506   */\n      dup2\n        /* \"#utility.yul\":22498:22518   */\n      sub\n        /* \"#utility.yul\":22494:22495   */\n      0x00\n        /* \"#utility.yul\":22483:22492   */\n      dup4\n        /* \"#utility.yul\":22479:22496   */\n      add\n        /* \"#utility.yul\":22472:22519   */\n      mstore\n        /* \"#utility.yul\":22536:22667   */\n      tag_371\n        /* \"#utility.yul\":22662:22666   */\n      dup2\n        /* \"#utility.yul\":22536:22667   */\n      tag_147\n      jump\t// in\n    tag_371:\n        /* \"#utility.yul\":22528:22667   */\n      swap1\n      pop\n        /* \"#utility.yul\":22255:22674   */\n      swap2\n      swap1\n      pop\n      jump\t// out\n\n    auxdata: 0xa26469706673582212206eef7cdaf5f6b12d9973cc196a82d621834e83fcef9188333ab287209573dc6264736f6c63430008160033\n}\n",
				"bytecode": {
					"linkReferences": {},
					"object": "608060405234801561000f575f80fd5b5061145f8061001d5f395ff3fe608060405260043610610054575f3560e01c80630374ab0b146100585780630b791430146100805780633d23eed9146100c157806361b8ce8c146100e95780638627df4614610113578063dae7a13c1461012f575b5f80fd5b348015610063575f80fd5b5061007e60048036038101906100799190610985565b61016b565b005b34801561008b575f80fd5b506100a660048036038101906100a19190610a05565b61032b565b6040516100b896959493929190610af8565b60405180910390f35b3480156100cc575f80fd5b506100e760048036038101906100e29190610b88565b610407565b005b3480156100f4575f80fd5b506100fd610609565b60405161010a9190610bd8565b60405180910390f35b61012d60048036038101906101289190610bf1565b61060f565b005b34801561013a575f80fd5b5061015560048036038101906101509190610c2f565b6107e5565b6040516101629190610bd8565b60405180910390f35b4283116101ad576040517f08c379a00000000000000000000000000000000000000000000000000000000081526004016101a490610cdd565b60405180910390fd5b600a81116101f0576040517f08c379a00000000000000000000000000000000000000000000000000000000081526004016101e790610d6b565b60405180910390fd5b6003845111610234576040517f08c379a000000000000000000000000000000000000000000000000000000000815260040161022b90610df9565b60405180910390fd5b6040518060c001604052803373ffffffffffffffffffffffffffffffffffffffff168152602001858152602001848152602001838152602001828152602001828152505f8060025481526020019081526020015f205f820151815f015f6101000a81548173ffffffffffffffffffffffffffffffffffffffff021916908373ffffffffffffffffffffffffffffffffffffffff16021790555060208201518160010190816102e29190611011565b5060408201518160020155606082015181600301556080820151816004015560a0820151816005015590505060025f8154809291906103209061110d565b919050555050505050565b5f602052805f5260405f205f91509050805f015f9054906101000a900473ffffffffffffffffffffffffffffffffffffffff169080600101805461036e90610e44565b80601f016020809104026020016040519081016040528092919081815260200182805461039a90610e44565b80156103e55780601f106103bc576101008083540402835291602001916103e5565b820191905f5260205f20905b8154815290600101906020018083116103c857829003601f168201915b5050505050908060020154908060030154908060040154908060050154905086565b5f805f8581526020019081526020015f20600201540361045c576040517f08c379a00000000000000000000000000000000000000000000000000000000081526004016104539061119e565b60405180910390fd5b425f808581526020019081526020015f2060020154116104b1576040517f08c379a00000000000000000000000000000000000000000000000000000000081526004016104a890611206565b60405180910390fd5b8160015f3373ffffffffffffffffffffffffffffffffffffffff1673ffffffffffffffffffffffffffffffffffffffff1681526020019081526020015f205f8581526020019081526020015f20541015610540576040517f08c379a000000000000000000000000000000000000000000000000000000000815260040161053790611294565b60405180910390fd5b8160015f3373ffffffffffffffffffffffffffffffffffffffff1673ffffffffffffffffffffffffffffffffffffffff1681526020019081526020015f205f8581526020019081526020015f205f82825461059b91906112b2565b925050819055508160015f8373ffffffffffffffffffffffffffffffffffffffff1673ffffffffffffffffffffffffffffffffffffffff1681526020019081526020015f205f8581526020019081526020015f205f8282546105fd91906112e5565b92505081905550505050565b60025481565b5f805f8481526020019081526020015f206002015403610664576040517f08c379a000000000000000000000000000000000000000000000000000000000815260040161065b9061119e565b60405180910390fd5b425f808481526020019081526020015f2060020154116106b9576040517f08c379a00000000000000000000000000000000000000000000000000000000081526004016106b090611206565b60405180910390fd5b5f805f8481526020019081526020015f2090508181600301546106dc9190611318565b341461071d576040517f08c379a0000000000000000000000000000000000000000000000000000000008152600401610714906113a3565b60405180910390fd5b8181600501541015610764576040517f08c379a000000000000000000000000000000000000000000000000000000000815260040161075b9061140b565b60405180910390fd5b81816005015f82825461077791906112b2565b925050819055508160015f3373ffffffffffffffffffffffffffffffffffffffff1673ffffffffffffffffffffffffffffffffffffffff1681526020019081526020015f205f8581526020019081526020015f205f8282546107d991906112e5565b92505081905550505050565b6001602052815f5260405f20602052805f5260405f205f91509150505481565b5f604051905090565b5f80fd5b5f80fd5b5f80fd5b5f80fd5b5f601f19601f8301169050919050565b7f4e487b71000000000000000000000000000000000000000000000000000000005f52604160045260245ffd5b6108648261081e565b810181811067ffffffffffffffff821117156108835761088261082e565b5b80604052505050565b5f610895610805565b90506108a1828261085b565b919050565b5f67ffffffffffffffff8211156108c0576108bf61082e565b5b6108c98261081e565b9050602081019050919050565b828183375f83830152505050565b5f6108f66108f1846108a6565b61088c565b9050828152602081018484840111156109125761091161081a565b5b61091d8482856108d6565b509392505050565b5f82601f83011261093957610938610816565b5b81356109498482602086016108e4565b91505092915050565b5f819050919050565b61096481610952565b811461096e575f80fd5b50565b5f8135905061097f8161095b565b92915050565b5f805f806080858703121561099d5761099c61080e565b5b5f85013567ffffffffffffffff8111156109ba576109b9610812565b5b6109c687828801610925565b94505060206109d787828801610971565b93505060406109e887828801610971565b92505060606109f987828801610971565b91505092959194509250565b5f60208284031215610a1a57610a1961080e565b5b5f610a2784828501610971565b91505092915050565b5f73ffffffffffffffffffffffffffffffffffffffff82169050919050565b5f610a5982610a30565b9050919050565b610a6981610a4f565b82525050565b5f81519050919050565b5f82825260208201905092915050565b5f5b83811015610aa6578082015181840152602081019050610a8b565b5f8484015250505050565b5f610abb82610a6f565b610ac58185610a79565b9350610ad5818560208601610a89565b610ade8161081e565b840191505092915050565b610af281610952565b82525050565b5f60c082019050610b0b5f830189610a60565b8181036020830152610b1d8188610ab1565b9050610b2c6040830187610ae9565b610b396060830186610ae9565b610b466080830185610ae9565b610b5360a0830184610ae9565b979650505050505050565b610b6781610a4f565b8114610b71575f80fd5b50565b5f81359050610b8281610b5e565b92915050565b5f805f60608486031215610b9f57610b9e61080e565b5b5f610bac86828701610971565b9350506020610bbd86828701610971565b9250506040610bce86828701610b74565b9150509250925092565b5f602082019050610beb5f830184610ae9565b92915050565b5f8060408385031215610c0757610c0661080e565b5b5f610c1485828601610971565b9250506020610c2585828601610971565b9150509250929050565b5f8060408385031215610c4557610c4461080e565b5b5f610c5285828601610b74565b9250506020610c6385828601610971565b9150509250929050565b7f506c656173652073656c656374206120667574757265206461746520666f72205f8201527f796f7572206576656e7421000000000000000000000000000000000000000000602082015250565b5f610cc7602b83610a79565b9150610cd282610c6d565b604082019050919050565b5f6020820190508181035f830152610cf481610cbb565b9050919050565b7f53656c65637420612076616c6964206e756d626572206f66207469636b6574735f8201527f2100000000000000000000000000000000000000000000000000000000000000602082015250565b5f610d55602183610a79565b9150610d6082610cfb565b604082019050919050565b5f6020820190508181035f830152610d8281610d49565b9050919050565b7f4576656e74206e616d652073686f756c642068617665206d6f7265207468616e5f8201527f2033206368617261637465727321000000000000000000000000000000000000602082015250565b5f610de3602e83610a79565b9150610dee82610d89565b604082019050919050565b5f6020820190508181035f830152610e1081610dd7565b9050919050565b7f4e487b71000000000000000000000000000000000000000000000000000000005f52602260045260245ffd5b5f6002820490506001821680610e5b57607f821691505b602082108103610e6e57610e6d610e17565b5b50919050565b5f819050815f5260205f209050919050565b5f6020601f8301049050919050565b5f82821b905092915050565b5f60088302610ed07fffffffffffffffffffffffffffffffffffffffffffffffffffffffffffffffff82610e95565b610eda8683610e95565b95508019841693508086168417925050509392505050565b5f819050919050565b5f610f15610f10610f0b84610952565b610ef2565b610952565b9050919050565b5f819050919050565b610f2e83610efb565b610f42610f3a82610f1c565b848454610ea1565b825550505050565b5f90565b610f56610f4a565b610f61818484610f25565b505050565b5b81811015610f8457610f795f82610f4e565b600181019050610f67565b5050565b601f821115610fc957610f9a81610e74565b610fa384610e86565b81016020851015610fb2578190505b610fc6610fbe85610e86565b830182610f66565b50505b505050565b5f82821c905092915050565b5f610fe95f1984600802610fce565b1980831691505092915050565b5f6110018383610fda565b9150826002028217905092915050565b61101a82610a6f565b67ffffffffffffffff8111156110335761103261082e565b5b61103d8254610e44565b611048828285610f88565b5f60209050601f831160018114611079575f8415611067578287015190505b6110718582610ff6565b8655506110d8565b601f19841661108786610e74565b5f5b828110156110ae57848901518255600182019150602085019450602081019050611089565b868310156110cb57848901516110c7601f891682610fda565b8355505b6001600288020188555050505b505050505050565b7f4e487b71000000000000000000000000000000000000000000000000000000005f52601160045260245ffd5b5f61111782610952565b91507fffffffffffffffffffffffffffffffffffffffffffffffffffffffffffffffff8203611149576111486110e0565b5b600182019050919050565b7f54686973206576656e7420646f6573206e6f74206578697473210000000000005f82015250565b5f611188601a83610a79565b915061119382611154565b602082019050919050565b5f6020820190508181035f8301526111b58161117c565b9050919050565b7f536f727279212054686973206576656e742068617320656e64656421000000005f82015250565b5f6111f0601c83610a79565b91506111fb826111bc565b602082019050919050565b5f6020820190508181035f83015261121d816111e4565b9050919050565b7f596f7520646f206e6f74206861766520656e6f756768207469636b65747320745f8201527f6f207472616e7366657221000000000000000000000000000000000000000000602082015250565b5f61127e602b83610a79565b915061128982611224565b604082019050919050565b5f6020820190508181035f8301526112ab81611272565b9050919050565b5f6112bc82610952565b91506112c783610952565b92508282039050818111156112df576112de6110e0565b5b92915050565b5f6112ef82610952565b91506112fa83610952565b9250828201905080821115611312576113116110e0565b5b92915050565b5f61132282610952565b915061132d83610952565b925082820261133b81610952565b91508282048414831517611352576113516110e0565b5b5092915050565b7f496e73756666696369656e7420457468657221000000000000000000000000005f82015250565b5f61138d601383610a79565b915061139882611359565b602082019050919050565b5f6020820190508181035f8301526113ba81611381565b9050919050565b7f536f72727921205469636b657473206e6f7420617661696c61626c65210000005f82015250565b5f6113f5601d83610a79565b9150611400826113c1565b602082019050919050565b5f6020820190508181035f830152611422816113e9565b905091905056fea26469706673582212206eef7cdaf5f6b12d9973cc196a82d621834e83fcef9188333ab287209573dc6264736f6c63430008160033",
					"opcodes": "PUSH1 0x80 PUSH1 0x40 MSTORE CALLVALUE DUP1 ISZERO PUSH2 0xF JUMPI PUSH0 DUP1 REVERT JUMPDEST POP PUSH2 0x145F DUP1 PUSH2 0x1D PUSH0 CODECOPY PUSH0 RETURN INVALID PUSH1 0x80 PUSH1 0x40 MSTORE PUSH1 0x4 CALLDATASIZE LT PUSH2 0x54 JUMPI PUSH0 CALLDATALOAD PUSH1 0xE0 SHR DUP1 PUSH4 0x374AB0B EQ PUSH2 0x58 JUMPI DUP1 PUSH4 0xB791430 EQ PUSH2 0x80 JUMPI DUP1 PUSH4 0x3D23EED9 EQ PUSH2 0xC1 JUMPI DUP1 PUSH4 0x61B8CE8C EQ PUSH2 0xE9 JUMPI DUP1 PUSH4 0x8627DF46 EQ PUSH2 0x113 JUMPI DUP1 PUSH4 0xDAE7A13C EQ PUSH2 0x12F JUMPI JUMPDEST PUSH0 DUP1 REVERT JUMPDEST CALLVALUE DUP1 ISZERO PUSH2 0x63 JUMPI PUSH0 DUP1 REVERT JUMPDEST POP PUSH2 0x7E PUSH1 0x4 DUP1 CALLDATASIZE SUB DUP2 ADD SWAP1 PUSH2 0x79 SWAP2 SWAP1 PUSH2 0x985 JUMP JUMPDEST PUSH2 0x16B JUMP JUMPDEST STOP JUMPDEST CALLVALUE DUP1 ISZERO PUSH2 0x8B JUMPI PUSH0 DUP1 REVERT JUMPDEST POP PUSH2 0xA6 PUSH1 0x4 DUP1 CALLDATASIZE SUB DUP2 ADD SWAP1 PUSH2 0xA1 SWAP2 SWAP1 PUSH2 0xA05 JUMP JUMPDEST PUSH2 0x32B JUMP JUMPDEST PUSH1 0x40 MLOAD PUSH2 0xB8 SWAP7 SWAP6 SWAP5 SWAP4 SWAP3 SWAP2 SWAP1 PUSH2 0xAF8 JUMP JUMPDEST PUSH1 0x40 MLOAD DUP1 SWAP2 SUB SWAP1 RETURN JUMPDEST CALLVALUE DUP1 ISZERO PUSH2 0xCC JUMPI PUSH0 DUP1 REVERT JUMPDEST POP PUSH2 0xE7 PUSH1 0x4 DUP1 CALLDATASIZE SUB DUP2 ADD SWAP1 PUSH2 0xE2 SWAP2 SWAP1 PUSH2 0xB88 JUMP JUMPDEST PUSH2 0x407 JUMP JUMPDEST STOP JUMPDEST CALLVALUE DUP1 ISZERO PUSH2 0xF4 JUMPI PUSH0 DUP1 REVERT JUMPDEST POP PUSH2 0xFD PUSH2 0x609 JUMP JUMPDEST PUSH1 0x40 MLOAD PUSH2 0x10A SWAP2 SWAP1 PUSH2 0xBD8 JUMP JUMPDEST PUSH1 0x40 MLOAD DUP1 SWAP2 SUB SWAP1 RETURN JUMPDEST PUSH2 0x12D PUSH1 0x4 DUP1 CALLDATASIZE SUB DUP2 ADD SWAP1 PUSH2 0x128 SWAP2 SWAP1 PUSH2 0xBF1 JUMP JUMPDEST PUSH2 0x60F JUMP JUMPDEST STOP JUMPDEST CALLVALUE DUP1 ISZERO PUSH2 0x13A JUMPI PUSH0 DUP1 REVERT JUMPDEST POP PUSH2 0x155 PUSH1 0x4 DUP1 CALLDATASIZE SUB DUP2 ADD SWAP1 PUSH2 0x150 SWAP2 SWAP1 PUSH2 0xC2F JUMP JUMPDEST PUSH2 0x7E5 JUMP JUMPDEST PUSH1 0x40 MLOAD PUSH2 0x162 SWAP2 SWAP1 PUSH2 0xBD8 JUMP JUMPDEST PUSH1 0x40 MLOAD DUP1 SWAP2 SUB SWAP1 RETURN JUMPDEST TIMESTAMP DUP4 GT PUSH2 0x1AD JUMPI PUSH1 0x40 MLOAD PUSH32 0x8C379A000000000000000000000000000000000000000000000000000000000 DUP2 MSTORE PUSH1 0x4 ADD PUSH2 0x1A4 SWAP1 PUSH2 0xCDD JUMP JUMPDEST PUSH1 0x40 MLOAD DUP1 SWAP2 SUB SWAP1 REVERT JUMPDEST PUSH1 0xA DUP2 GT PUSH2 0x1F0 JUMPI PUSH1 0x40 MLOAD PUSH32 0x8C379A000000000000000000000000000000000000000000000000000000000 DUP2 MSTORE PUSH1 0x4 ADD PUSH2 0x1E7 SWAP1 PUSH2 0xD6B JUMP JUMPDEST PUSH1 0x40 MLOAD DUP1 SWAP2 SUB SWAP1 REVERT JUMPDEST PUSH1 0x3 DUP5 MLOAD GT PUSH2 0x234 JUMPI PUSH1 0x40 MLOAD PUSH32 0x8C379A000000000000000000000000000000000000000000000000000000000 DUP2 MSTORE PUSH1 0x4 ADD PUSH2 0x22B SWAP1 PUSH2 0xDF9 JUMP JUMPDEST PUSH1 0x40 MLOAD DUP1 SWAP2 SUB SWAP1 REVERT JUMPDEST PUSH1 0x40 MLOAD DUP1 PUSH1 0xC0 ADD PUSH1 0x40 MSTORE DUP1 CALLER PUSH20 0xFFFFFFFFFFFFFFFFFFFFFFFFFFFFFFFFFFFFFFFF AND DUP2 MSTORE PUSH1 0x20 ADD DUP6 DUP2 MSTORE PUSH1 0x20 ADD DUP5 DUP2 MSTORE PUSH1 0x20 ADD DUP4 DUP2 MSTORE PUSH1 0x20 ADD DUP3 DUP2 MSTORE PUSH1 0x20 ADD DUP3 DUP2 MSTORE POP PUSH0 DUP1 PUSH1 0x2 SLOAD DUP2 MSTORE PUSH1 0x20 ADD SWAP1 DUP2 MSTORE PUSH1 0x20 ADD PUSH0 KECCAK256 PUSH0 DUP3 ADD MLOAD DUP2 PUSH0 ADD PUSH0 PUSH2 0x100 EXP DUP2 SLOAD DUP2 PUSH20 0xFFFFFFFFFFFFFFFFFFFFFFFFFFFFFFFFFFFFFFFF MUL NOT AND SWAP1 DUP4 PUSH20 0xFFFFFFFFFFFFFFFFFFFFFFFFFFFFFFFFFFFFFFFF AND MUL OR SWAP1 SSTORE POP PUSH1 0x20 DUP3 ADD MLOAD DUP2 PUSH1 0x1 ADD SWAP1 DUP2 PUSH2 0x2E2 SWAP2 SWAP1 PUSH2 0x1011 JUMP JUMPDEST POP PUSH1 0x40 DUP3 ADD MLOAD DUP2 PUSH1 0x2 ADD SSTORE PUSH1 0x60 DUP3 ADD MLOAD DUP2 PUSH1 0x3 ADD SSTORE PUSH1 0x80 DUP3 ADD MLOAD DUP2 PUSH1 0x4 ADD SSTORE PUSH1 0xA0 DUP3 ADD MLOAD DUP2 PUSH1 0x5 ADD SSTORE SWAP1 POP POP PUSH1 0x2 PUSH0 DUP2 SLOAD DUP1 SWAP3 SWAP2 SWAP1 PUSH2 0x320 SWAP1 PUSH2 0x110D JUMP JUMPDEST SWAP2 SWAP1 POP SSTORE POP POP POP POP POP JUMP JUMPDEST PUSH0 PUSH1 0x20 MSTORE DUP1 PUSH0 MSTORE PUSH1 0x40 PUSH0 KECCAK256 PUSH0 SWAP2 POP SWAP1 POP DUP1 PUSH0 ADD PUSH0 SWAP1 SLOAD SWAP1 PUSH2 0x100 EXP SWAP1 DIV PUSH20 0xFFFFFFFFFFFFFFFFFFFFFFFFFFFFFFFFFFFFFFFF AND SWAP1 DUP1 PUSH1 0x1 ADD DUP1 SLOAD PUSH2 0x36E SWAP1 PUSH2 0xE44 JUMP JUMPDEST DUP1 PUSH1 0x1F ADD PUSH1 0x20 DUP1 SWAP2 DIV MUL PUSH1 0x20 ADD PUSH1 0x40 MLOAD SWAP1 DUP2 ADD PUSH1 0x40 MSTORE DUP1 SWAP3 SWAP2 SWAP1 DUP2 DUP2 MSTORE PUSH1 0x20 ADD DUP3 DUP1 SLOAD PUSH2 0x39A SWAP1 PUSH2 0xE44 JUMP JUMPDEST DUP1 ISZERO PUSH2 0x3E5 JUMPI DUP1 PUSH1 0x1F LT PUSH2 0x3BC JUMPI PUSH2 0x100 DUP1 DUP4 SLOAD DIV MUL DUP4 MSTORE SWAP2 PUSH1 0x20 ADD SWAP2 PUSH2 0x3E5 JUMP JUMPDEST DUP3 ADD SWAP2 SWAP1 PUSH0 MSTORE PUSH1 0x20 PUSH0 KECCAK256 SWAP1 JUMPDEST DUP2 SLOAD DUP2 MSTORE SWAP1 PUSH1 0x1 ADD SWAP1 PUSH1 0x20 ADD DUP1 DUP4 GT PUSH2 0x3C8 JUMPI DUP3 SWAP1 SUB PUSH1 0x1F AND DUP3 ADD SWAP2 JUMPDEST POP POP POP POP POP SWAP1 DUP1 PUSH1 0x2 ADD SLOAD SWAP1 DUP1 PUSH1 0x3 ADD SLOAD SWAP1 DUP1 PUSH1 0x4 ADD SLOAD SWAP1 DUP1 PUSH1 0x5 ADD SLOAD SWAP1 POP DUP7 JUMP JUMPDEST PUSH0 DUP1 PUSH0 DUP6 DUP2 MSTORE PUSH1 0x20 ADD SWAP1 DUP2 MSTORE PUSH1 0x20 ADD PUSH0 KECCAK256 PUSH1 0x2 ADD SLOAD SUB PUSH2 0x45C JUMPI PUSH1 0x40 MLOAD PUSH32 0x8C379A000000000000000000000000000000000000000000000000000000000 DUP2 MSTORE PUSH1 0x4 ADD PUSH2 0x453 SWAP1 PUSH2 0x119E JUMP JUMPDEST PUSH1 0x40 MLOAD DUP1 SWAP2 SUB SWAP1 REVERT JUMPDEST TIMESTAMP PUSH0 DUP1 DUP6 DUP2 MSTORE PUSH1 0x20 ADD SWAP1 DUP2 MSTORE PUSH1 0x20 ADD PUSH0 KECCAK256 PUSH1 0x2 ADD SLOAD GT PUSH2 0x4B1 JUMPI PUSH1 0x40 MLOAD PUSH32 0x8C379A000000000000000000000000000000000000000000000000000000000 DUP2 MSTORE PUSH1 0x4 ADD PUSH2 0x4A8 SWAP1 PUSH2 0x1206 JUMP JUMPDEST PUSH1 0x40 MLOAD DUP1 SWAP2 SUB SWAP1 REVERT JUMPDEST DUP2 PUSH1 0x1 PUSH0 CALLER PUSH20 0xFFFFFFFFFFFFFFFFFFFFFFFFFFFFFFFFFFFFFFFF AND PUSH20 0xFFFFFFFFFFFFFFFFFFFFFFFFFFFFFFFFFFFFFFFF AND DUP2 MSTORE PUSH1 0x20 ADD SWAP1 DUP2 MSTORE PUSH1 0x20 ADD PUSH0 KECCAK256 PUSH0 DUP6 DUP2 MSTORE PUSH1 0x20 ADD SWAP1 DUP2 MSTORE PUSH1 0x20 ADD PUSH0 KECCAK256 SLOAD LT ISZERO PUSH2 0x540 JUMPI PUSH1 0x40 MLOAD PUSH32 0x8C379A000000000000000000000000000000000000000000000000000000000 DUP2 MSTORE PUSH1 0x4 ADD PUSH2 0x537 SWAP1 PUSH2 0x1294 JUMP JUMPDEST PUSH1 0x40 MLOAD DUP1 SWAP2 SUB SWAP1 REVERT JUMPDEST DUP2 PUSH1 0x1 PUSH0 CALLER PUSH20 0xFFFFFFFFFFFFFFFFFFFFFFFFFFFFFFFFFFFFFFFF AND PUSH20 0xFFFFFFFFFFFFFFFFFFFFFFFFFFFFFFFFFFFFFFFF AND DUP2 MSTORE PUSH1 0x20 ADD SWAP1 DUP2 MSTORE PUSH1 0x20 ADD PUSH0 KECCAK256 PUSH0 DUP6 DUP2 MSTORE PUSH1 0x20 ADD SWAP1 DUP2 MSTORE PUSH1 0x20 ADD PUSH0 KECCAK256 PUSH0 DUP3 DUP3 SLOAD PUSH2 0x59B SWAP2 SWAP1 PUSH2 0x12B2 JUMP JUMPDEST SWAP3 POP POP DUP2 SWAP1 SSTORE POP DUP2 PUSH1 0x1 PUSH0 DUP4 PUSH20 0xFFFFFFFFFFFFFFFFFFFFFFFFFFFFFFFFFFFFFFFF AND PUSH20 0xFFFFFFFFFFFFFFFFFFFFFFFFFFFFFFFFFFFFFFFF AND DUP2 MSTORE PUSH1 0x20 ADD SWAP1 DUP2 MSTORE PUSH1 0x20 ADD PUSH0 KECCAK256 PUSH0 DUP6 DUP2 MSTORE PUSH1 0x20 ADD SWAP1 DUP2 MSTORE PUSH1 0x20 ADD PUSH0 KECCAK256 PUSH0 DUP3 DUP3 SLOAD PUSH2 0x5FD SWAP2 SWAP1 PUSH2 0x12E5 JUMP JUMPDEST SWAP3 POP POP DUP2 SWAP1 SSTORE POP POP POP POP JUMP JUMPDEST PUSH1 0x2 SLOAD DUP2 JUMP JUMPDEST PUSH0 DUP1 PUSH0 DUP5 DUP2 MSTORE PUSH1 0x20 ADD SWAP1 DUP2 MSTORE PUSH1 0x20 ADD PUSH0 KECCAK256 PUSH1 0x2 ADD SLOAD SUB PUSH2 0x664 JUMPI PUSH1 0x40 MLOAD PUSH32 0x8C379A000000000000000000000000000000000000000000000000000000000 DUP2 MSTORE PUSH1 0x4 ADD PUSH2 0x65B SWAP1 PUSH2 0x119E JUMP JUMPDEST PUSH1 0x40 MLOAD DUP1 SWAP2 SUB SWAP1 REVERT JUMPDEST TIMESTAMP PUSH0 DUP1 DUP5 DUP2 MSTORE PUSH1 0x20 ADD SWAP1 DUP2 MSTORE PUSH1 0x20 ADD PUSH0 KECCAK256 PUSH1 0x2 ADD SLOAD GT PUSH2 0x6B9 JUMPI PUSH1 0x40 MLOAD PUSH32 0x8C379A000000000000000000000000000000000000000000000000000000000 DUP2 MSTORE PUSH1 0x4 ADD PUSH2 0x6B0 SWAP1 PUSH2 0x1206 JUMP JUMPDEST PUSH1 0x40 MLOAD DUP1 SWAP2 SUB SWAP1 REVERT JUMPDEST PUSH0 DUP1 PUSH0 DUP5 DUP2 MSTORE PUSH1 0x20 ADD SWAP1 DUP2 MSTORE PUSH1 0x20 ADD PUSH0 KECCAK256 SWAP1 POP DUP2 DUP2 PUSH1 0x3 ADD SLOAD PUSH2 0x6DC SWAP2 SWAP1 PUSH2 0x1318 JUMP JUMPDEST CALLVALUE EQ PUSH2 0x71D JUMPI PUSH1 0x40 MLOAD PUSH32 0x8C379A000000000000000000000000000000000000000000000000000000000 DUP2 MSTORE PUSH1 0x4 ADD PUSH2 0x714 SWAP1 PUSH2 0x13A3 JUMP JUMPDEST PUSH1 0x40 MLOAD DUP1 SWAP2 SUB SWAP1 REVERT JUMPDEST DUP2 DUP2 PUSH1 0x5 ADD SLOAD LT ISZERO PUSH2 0x764 JUMPI PUSH1 0x40 MLOAD PUSH32 0x8C379A000000000000000000000000000000000000000000000000000000000 DUP2 MSTORE PUSH1 0x4 ADD PUSH2 0x75B SWAP1 PUSH2 0x140B JUMP JUMPDEST PUSH1 0x40 MLOAD DUP1 SWAP2 SUB SWAP1 REVERT JUMPDEST DUP2 DUP2 PUSH1 0x5 ADD PUSH0 DUP3 DUP3 SLOAD PUSH2 0x777 SWAP2 SWAP1 PUSH2 0x12B2 JUMP JUMPDEST SWAP3 POP POP DUP2 SWAP1 SSTORE POP DUP2 PUSH1 0x1 PUSH0 CALLER PUSH20 0xFFFFFFFFFFFFFFFFFFFFFFFFFFFFFFFFFFFFFFFF AND PUSH20 0xFFFFFFFFFFFFFFFFFFFFFFFFFFFFFFFFFFFFFFFF AND DUP2 MSTORE PUSH1 0x20 ADD SWAP1 DUP2 MSTORE PUSH1 0x20 ADD PUSH0 KECCAK256 PUSH0 DUP6 DUP2 MSTORE PUSH1 0x20 ADD SWAP1 DUP2 MSTORE PUSH1 0x20 ADD PUSH0 KECCAK256 PUSH0 DUP3 DUP3 SLOAD PUSH2 0x7D9 SWAP2 SWAP1 PUSH2 0x12E5 JUMP JUMPDEST SWAP3 POP POP DUP2 SWAP1 SSTORE POP POP POP POP JUMP JUMPDEST PUSH1 0x1 PUSH1 0x20 MSTORE DUP2 PUSH0 MSTORE PUSH1 0x40 PUSH0 KECCAK256 PUSH1 0x20 MSTORE DUP1 PUSH0 MSTORE PUSH1 0x40 PUSH0 KECCAK256 PUSH0 SWAP2 POP SWAP2 POP POP SLOAD DUP2 JUMP JUMPDEST PUSH0 PUSH1 0x40 MLOAD SWAP1 POP SWAP1 JUMP JUMPDEST PUSH0 DUP1 REVERT JUMPDEST PUSH0 DUP1 REVERT JUMPDEST PUSH0 DUP1 REVERT JUMPDEST PUSH0 DUP1 REVERT JUMPDEST PUSH0 PUSH1 0x1F NOT PUSH1 0x1F DUP4 ADD AND SWAP1 POP SWAP2 SWAP1 POP JUMP JUMPDEST PUSH32 0x4E487B7100000000000000000000000000000000000000000000000000000000 PUSH0 MSTORE PUSH1 0x41 PUSH1 0x4 MSTORE PUSH1 0x24 PUSH0 REVERT JUMPDEST PUSH2 0x864 DUP3 PUSH2 0x81E JUMP JUMPDEST DUP2 ADD DUP2 DUP2 LT PUSH8 0xFFFFFFFFFFFFFFFF DUP3 GT OR ISZERO PUSH2 0x883 JUMPI PUSH2 0x882 PUSH2 0x82E JUMP JUMPDEST JUMPDEST DUP1 PUSH1 0x40 MSTORE POP POP POP JUMP JUMPDEST PUSH0 PUSH2 0x895 PUSH2 0x805 JUMP JUMPDEST SWAP1 POP PUSH2 0x8A1 DUP3 DUP3 PUSH2 0x85B JUMP JUMPDEST SWAP2 SWAP1 POP JUMP JUMPDEST PUSH0 PUSH8 0xFFFFFFFFFFFFFFFF DUP3 GT ISZERO PUSH2 0x8C0 JUMPI PUSH2 0x8BF PUSH2 0x82E JUMP JUMPDEST JUMPDEST PUSH2 0x8C9 DUP3 PUSH2 0x81E JUMP JUMPDEST SWAP1 POP PUSH1 0x20 DUP2 ADD SWAP1 POP SWAP2 SWAP1 POP JUMP JUMPDEST DUP3 DUP2 DUP4 CALLDATACOPY PUSH0 DUP4 DUP4 ADD MSTORE POP POP POP JUMP JUMPDEST PUSH0 PUSH2 0x8F6 PUSH2 0x8F1 DUP5 PUSH2 0x8A6 JUMP JUMPDEST PUSH2 0x88C JUMP JUMPDEST SWAP1 POP DUP3 DUP2 MSTORE PUSH1 0x20 DUP2 ADD DUP5 DUP5 DUP5 ADD GT ISZERO PUSH2 0x912 JUMPI PUSH2 0x911 PUSH2 0x81A JUMP JUMPDEST JUMPDEST PUSH2 0x91D DUP5 DUP3 DUP6 PUSH2 0x8D6 JUMP JUMPDEST POP SWAP4 SWAP3 POP POP POP JUMP JUMPDEST PUSH0 DUP3 PUSH1 0x1F DUP4 ADD SLT PUSH2 0x939 JUMPI PUSH2 0x938 PUSH2 0x816 JUMP JUMPDEST JUMPDEST DUP2 CALLDATALOAD PUSH2 0x949 DUP5 DUP3 PUSH1 0x20 DUP7 ADD PUSH2 0x8E4 JUMP JUMPDEST SWAP2 POP POP SWAP3 SWAP2 POP POP JUMP JUMPDEST PUSH0 DUP2 SWAP1 POP SWAP2 SWAP1 POP JUMP JUMPDEST PUSH2 0x964 DUP2 PUSH2 0x952 JUMP JUMPDEST DUP2 EQ PUSH2 0x96E JUMPI PUSH0 DUP1 REVERT JUMPDEST POP JUMP JUMPDEST PUSH0 DUP2 CALLDATALOAD SWAP1 POP PUSH2 0x97F DUP2 PUSH2 0x95B JUMP JUMPDEST SWAP3 SWAP2 POP POP JUMP JUMPDEST PUSH0 DUP1 PUSH0 DUP1 PUSH1 0x80 DUP6 DUP8 SUB SLT ISZERO PUSH2 0x99D JUMPI PUSH2 0x99C PUSH2 0x80E JUMP JUMPDEST JUMPDEST PUSH0 DUP6 ADD CALLDATALOAD PUSH8 0xFFFFFFFFFFFFFFFF DUP2 GT ISZERO PUSH2 0x9BA JUMPI PUSH2 0x9B9 PUSH2 0x812 JUMP JUMPDEST JUMPDEST PUSH2 0x9C6 DUP8 DUP3 DUP9 ADD PUSH2 0x925 JUMP JUMPDEST SWAP5 POP POP PUSH1 0x20 PUSH2 0x9D7 DUP8 DUP3 DUP9 ADD PUSH2 0x971 JUMP JUMPDEST SWAP4 POP POP PUSH1 0x40 PUSH2 0x9E8 DUP8 DUP3 DUP9 ADD PUSH2 0x971 JUMP JUMPDEST SWAP3 POP POP PUSH1 0x60 PUSH2 0x9F9 DUP8 DUP3 DUP9 ADD PUSH2 0x971 JUMP JUMPDEST SWAP2 POP POP SWAP3 SWAP6 SWAP2 SWAP5 POP SWAP3 POP JUMP JUMPDEST PUSH0 PUSH1 0x20 DUP3 DUP5 SUB SLT ISZERO PUSH2 0xA1A JUMPI PUSH2 0xA19 PUSH2 0x80E JUMP JUMPDEST JUMPDEST PUSH0 PUSH2 0xA27 DUP5 DUP3 DUP6 ADD PUSH2 0x971 JUMP JUMPDEST SWAP2 POP POP SWAP3 SWAP2 POP POP JUMP JUMPDEST PUSH0 PUSH20 0xFFFFFFFFFFFFFFFFFFFFFFFFFFFFFFFFFFFFFFFF DUP3 AND SWAP1 POP SWAP2 SWAP1 POP JUMP JUMPDEST PUSH0 PUSH2 0xA59 DUP3 PUSH2 0xA30 JUMP JUMPDEST SWAP1 POP SWAP2 SWAP1 POP JUMP JUMPDEST PUSH2 0xA69 DUP2 PUSH2 0xA4F JUMP JUMPDEST DUP3 MSTORE POP POP JUMP JUMPDEST PUSH0 DUP2 MLOAD SWAP1 POP SWAP2 SWAP1 POP JUMP JUMPDEST PUSH0 DUP3 DUP3 MSTORE PUSH1 0x20 DUP3 ADD SWAP1 POP SWAP3 SWAP2 POP POP JUMP JUMPDEST PUSH0 JUMPDEST DUP4 DUP2 LT ISZERO PUSH2 0xAA6 JUMPI DUP1 DUP3 ADD MLOAD DUP2 DUP5 ADD MSTORE PUSH1 0x20 DUP2 ADD SWAP1 POP PUSH2 0xA8B JUMP JUMPDEST PUSH0 DUP5 DUP5 ADD MSTORE POP POP POP POP JUMP JUMPDEST PUSH0 PUSH2 0xABB DUP3 PUSH2 0xA6F JUMP JUMPDEST PUSH2 0xAC5 DUP2 DUP6 PUSH2 0xA79 JUMP JUMPDEST SWAP4 POP PUSH2 0xAD5 DUP2 DUP6 PUSH1 0x20 DUP7 ADD PUSH2 0xA89 JUMP JUMPDEST PUSH2 0xADE DUP2 PUSH2 0x81E JUMP JUMPDEST DUP5 ADD SWAP2 POP POP SWAP3 SWAP2 POP POP JUMP JUMPDEST PUSH2 0xAF2 DUP2 PUSH2 0x952 JUMP JUMPDEST DUP3 MSTORE POP POP JUMP JUMPDEST PUSH0 PUSH1 0xC0 DUP3 ADD SWAP1 POP PUSH2 0xB0B PUSH0 DUP4 ADD DUP10 PUSH2 0xA60 JUMP JUMPDEST DUP2 DUP2 SUB PUSH1 0x20 DUP4 ADD MSTORE PUSH2 0xB1D DUP2 DUP9 PUSH2 0xAB1 JUMP JUMPDEST SWAP1 POP PUSH2 0xB2C PUSH1 0x40 DUP4 ADD DUP8 PUSH2 0xAE9 JUMP JUMPDEST PUSH2 0xB39 PUSH1 0x60 DUP4 ADD DUP7 PUSH2 0xAE9 JUMP JUMPDEST PUSH2 0xB46 PUSH1 0x80 DUP4 ADD DUP6 PUSH2 0xAE9 JUMP JUMPDEST PUSH2 0xB53 PUSH1 0xA0 DUP4 ADD DUP5 PUSH2 0xAE9 JUMP JUMPDEST SWAP8 SWAP7 POP POP POP POP POP POP POP JUMP JUMPDEST PUSH2 0xB67 DUP2 PUSH2 0xA4F JUMP JUMPDEST DUP2 EQ PUSH2 0xB71 JUMPI PUSH0 DUP1 REVERT JUMPDEST POP JUMP JUMPDEST PUSH0 DUP2 CALLDATALOAD SWAP1 POP PUSH2 0xB82 DUP2 PUSH2 0xB5E JUMP JUMPDEST SWAP3 SWAP2 POP POP JUMP JUMPDEST PUSH0 DUP1 PUSH0 PUSH1 0x60 DUP5 DUP7 SUB SLT ISZERO PUSH2 0xB9F JUMPI PUSH2 0xB9E PUSH2 0x80E JUMP JUMPDEST JUMPDEST PUSH0 PUSH2 0xBAC DUP7 DUP3 DUP8 ADD PUSH2 0x971 JUMP JUMPDEST SWAP4 POP POP PUSH1 0x20 PUSH2 0xBBD DUP7 DUP3 DUP8 ADD PUSH2 0x971 JUMP JUMPDEST SWAP3 POP POP PUSH1 0x40 PUSH2 0xBCE DUP7 DUP3 DUP8 ADD PUSH2 0xB74 JUMP JUMPDEST SWAP2 POP POP SWAP3 POP SWAP3 POP SWAP3 JUMP JUMPDEST PUSH0 PUSH1 0x20 DUP3 ADD SWAP1 POP PUSH2 0xBEB PUSH0 DUP4 ADD DUP5 PUSH2 0xAE9 JUMP JUMPDEST SWAP3 SWAP2 POP POP JUMP JUMPDEST PUSH0 DUP1 PUSH1 0x40 DUP4 DUP6 SUB SLT ISZERO PUSH2 0xC07 JUMPI PUSH2 0xC06 PUSH2 0x80E JUMP JUMPDEST JUMPDEST PUSH0 PUSH2 0xC14 DUP6 DUP3 DUP7 ADD PUSH2 0x971 JUMP JUMPDEST SWAP3 POP POP PUSH1 0x20 PUSH2 0xC25 DUP6 DUP3 DUP7 ADD PUSH2 0x971 JUMP JUMPDEST SWAP2 POP POP SWAP3 POP SWAP3 SWAP1 POP JUMP JUMPDEST PUSH0 DUP1 PUSH1 0x40 DUP4 DUP6 SUB SLT ISZERO PUSH2 0xC45 JUMPI PUSH2 0xC44 PUSH2 0x80E JUMP JUMPDEST JUMPDEST PUSH0 PUSH2 0xC52 DUP6 DUP3 DUP7 ADD PUSH2 0xB74 JUMP JUMPDEST SWAP3 POP POP PUSH1 0x20 PUSH2 0xC63 DUP6 DUP3 DUP7 ADD PUSH2 0x971 JUMP JUMPDEST SWAP2 POP POP SWAP3 POP SWAP3 SWAP1 POP JUMP JUMPDEST PUSH32 0x506C656173652073656C656374206120667574757265206461746520666F7220 PUSH0 DUP3 ADD MSTORE PUSH32 0x796F7572206576656E7421000000000000000000000000000000000000000000 PUSH1 0x20 DUP3 ADD MSTORE POP JUMP JUMPDEST PUSH0 PUSH2 0xCC7 PUSH1 0x2B DUP4 PUSH2 0xA79 JUMP JUMPDEST SWAP2 POP PUSH2 0xCD2 DUP3 PUSH2 0xC6D JUMP JUMPDEST PUSH1 0x40 DUP3 ADD SWAP1 POP SWAP2 SWAP1 POP JUMP JUMPDEST PUSH0 PUSH1 0x20 DUP3 ADD SWAP1 POP DUP2 DUP2 SUB PUSH0 DUP4 ADD MSTORE PUSH2 0xCF4 DUP2 PUSH2 0xCBB JUMP JUMPDEST SWAP1 POP SWAP2 SWAP1 POP JUMP JUMPDEST PUSH32 0x53656C65637420612076616C6964206E756D626572206F66207469636B657473 PUSH0 DUP3 ADD MSTORE PUSH32 0x2100000000000000000000000000000000000000000000000000000000000000 PUSH1 0x20 DUP3 ADD MSTORE POP JUMP JUMPDEST PUSH0 PUSH2 0xD55 PUSH1 0x21 DUP4 PUSH2 0xA79 JUMP JUMPDEST SWAP2 POP PUSH2 0xD60 DUP3 PUSH2 0xCFB JUMP JUMPDEST PUSH1 0x40 DUP3 ADD SWAP1 POP SWAP2 SWAP1 POP JUMP JUMPDEST PUSH0 PUSH1 0x20 DUP3 ADD SWAP1 POP DUP2 DUP2 SUB PUSH0 DUP4 ADD MSTORE PUSH2 0xD82 DUP2 PUSH2 0xD49 JUMP JUMPDEST SWAP1 POP SWAP2 SWAP1 POP JUMP JUMPDEST PUSH32 0x4576656E74206E616D652073686F756C642068617665206D6F7265207468616E PUSH0 DUP3 ADD MSTORE PUSH32 0x2033206368617261637465727321000000000000000000000000000000000000 PUSH1 0x20 DUP3 ADD MSTORE POP JUMP JUMPDEST PUSH0 PUSH2 0xDE3 PUSH1 0x2E DUP4 PUSH2 0xA79 JUMP JUMPDEST SWAP2 POP PUSH2 0xDEE DUP3 PUSH2 0xD89 JUMP JUMPDEST PUSH1 0x40 DUP3 ADD SWAP1 POP SWAP2 SWAP1 POP JUMP JUMPDEST PUSH0 PUSH1 0x20 DUP3 ADD SWAP1 POP DUP2 DUP2 SUB PUSH0 DUP4 ADD MSTORE PUSH2 0xE10 DUP2 PUSH2 0xDD7 JUMP JUMPDEST SWAP1 POP SWAP2 SWAP1 POP JUMP JUMPDEST PUSH32 0x4E487B7100000000000000000000000000000000000000000000000000000000 PUSH0 MSTORE PUSH1 0x22 PUSH1 0x4 MSTORE PUSH1 0x24 PUSH0 REVERT JUMPDEST PUSH0 PUSH1 0x2 DUP3 DIV SWAP1 POP PUSH1 0x1 DUP3 AND DUP1 PUSH2 0xE5B JUMPI PUSH1 0x7F DUP3 AND SWAP2 POP JUMPDEST PUSH1 0x20 DUP3 LT DUP2 SUB PUSH2 0xE6E JUMPI PUSH2 0xE6D PUSH2 0xE17 JUMP JUMPDEST JUMPDEST POP SWAP2 SWAP1 POP JUMP JUMPDEST PUSH0 DUP2 SWAP1 POP DUP2 PUSH0 MSTORE PUSH1 0x20 PUSH0 KECCAK256 SWAP1 POP SWAP2 SWAP1 POP JUMP JUMPDEST PUSH0 PUSH1 0x20 PUSH1 0x1F DUP4 ADD DIV SWAP1 POP SWAP2 SWAP1 POP JUMP JUMPDEST PUSH0 DUP3 DUP3 SHL SWAP1 POP SWAP3 SWAP2 POP POP JUMP JUMPDEST PUSH0 PUSH1 0x8 DUP4 MUL PUSH2 0xED0 PUSH32 0xFFFFFFFFFFFFFFFFFFFFFFFFFFFFFFFFFFFFFFFFFFFFFFFFFFFFFFFFFFFFFFFF DUP3 PUSH2 0xE95 JUMP JUMPDEST PUSH2 0xEDA DUP7 DUP4 PUSH2 0xE95 JUMP JUMPDEST SWAP6 POP DUP1 NOT DUP5 AND SWAP4 POP DUP1 DUP7 AND DUP5 OR SWAP3 POP POP POP SWAP4 SWAP3 POP POP POP JUMP JUMPDEST PUSH0 DUP2 SWAP1 POP SWAP2 SWAP1 POP JUMP JUMPDEST PUSH0 PUSH2 0xF15 PUSH2 0xF10 PUSH2 0xF0B DUP5 PUSH2 0x952 JUMP JUMPDEST PUSH2 0xEF2 JUMP JUMPDEST PUSH2 0x952 JUMP JUMPDEST SWAP1 POP SWAP2 SWAP1 POP JUMP JUMPDEST PUSH0 DUP2 SWAP1 POP SWAP2 SWAP1 POP JUMP JUMPDEST PUSH2 0xF2E DUP4 PUSH2 0xEFB JUMP JUMPDEST PUSH2 0xF42 PUSH2 0xF3A DUP3 PUSH2 0xF1C JUMP JUMPDEST DUP5 DUP5 SLOAD PUSH2 0xEA1 JUMP JUMPDEST DUP3 SSTORE POP POP POP POP JUMP JUMPDEST PUSH0 SWAP1 JUMP JUMPDEST PUSH2 0xF56 PUSH2 0xF4A JUMP JUMPDEST PUSH2 0xF61 DUP2 DUP5 DUP5 PUSH2 0xF25 JUMP JUMPDEST POP POP POP JUMP JUMPDEST JUMPDEST DUP2 DUP2 LT ISZERO PUSH2 0xF84 JUMPI PUSH2 0xF79 PUSH0 DUP3 PUSH2 0xF4E JUMP JUMPDEST PUSH1 0x1 DUP2 ADD SWAP1 POP PUSH2 0xF67 JUMP JUMPDEST POP POP JUMP JUMPDEST PUSH1 0x1F DUP3 GT ISZERO PUSH2 0xFC9 JUMPI PUSH2 0xF9A DUP2 PUSH2 0xE74 JUMP JUMPDEST PUSH2 0xFA3 DUP5 PUSH2 0xE86 JUMP JUMPDEST DUP2 ADD PUSH1 0x20 DUP6 LT ISZERO PUSH2 0xFB2 JUMPI DUP2 SWAP1 POP JUMPDEST PUSH2 0xFC6 PUSH2 0xFBE DUP6 PUSH2 0xE86 JUMP JUMPDEST DUP4 ADD DUP3 PUSH2 0xF66 JUMP JUMPDEST POP POP JUMPDEST POP POP POP JUMP JUMPDEST PUSH0 DUP3 DUP3 SHR SWAP1 POP SWAP3 SWAP2 POP POP JUMP JUMPDEST PUSH0 PUSH2 0xFE9 PUSH0 NOT DUP5 PUSH1 0x8 MUL PUSH2 0xFCE JUMP JUMPDEST NOT DUP1 DUP4 AND SWAP2 POP POP SWAP3 SWAP2 POP POP JUMP JUMPDEST PUSH0 PUSH2 0x1001 DUP4 DUP4 PUSH2 0xFDA JUMP JUMPDEST SWAP2 POP DUP3 PUSH1 0x2 MUL DUP3 OR SWAP1 POP SWAP3 SWAP2 POP POP JUMP JUMPDEST PUSH2 0x101A DUP3 PUSH2 0xA6F JUMP JUMPDEST PUSH8 0xFFFFFFFFFFFFFFFF DUP2 GT ISZERO PUSH2 0x1033 JUMPI PUSH2 0x1032 PUSH2 0x82E JUMP JUMPDEST JUMPDEST PUSH2 0x103D DUP3 SLOAD PUSH2 0xE44 JUMP JUMPDEST PUSH2 0x1048 DUP3 DUP3 DUP6 PUSH2 0xF88 JUMP JUMPDEST PUSH0 PUSH1 0x20 SWAP1 POP PUSH1 0x1F DUP4 GT PUSH1 0x1 DUP2 EQ PUSH2 0x1079 JUMPI PUSH0 DUP5 ISZERO PUSH2 0x1067 JUMPI DUP3 DUP8 ADD MLOAD SWAP1 POP JUMPDEST PUSH2 0x1071 DUP6 DUP3 PUSH2 0xFF6 JUMP JUMPDEST DUP7 SSTORE POP PUSH2 0x10D8 JUMP JUMPDEST PUSH1 0x1F NOT DUP5 AND PUSH2 0x1087 DUP7 PUSH2 0xE74 JUMP JUMPDEST PUSH0 JUMPDEST DUP3 DUP2 LT ISZERO PUSH2 0x10AE JUMPI DUP5 DUP10 ADD MLOAD DUP3 SSTORE PUSH1 0x1 DUP3 ADD SWAP2 POP PUSH1 0x20 DUP6 ADD SWAP5 POP PUSH1 0x20 DUP2 ADD SWAP1 POP PUSH2 0x1089 JUMP JUMPDEST DUP7 DUP4 LT ISZERO PUSH2 0x10CB JUMPI DUP5 DUP10 ADD MLOAD PUSH2 0x10C7 PUSH1 0x1F DUP10 AND DUP3 PUSH2 0xFDA JUMP JUMPDEST DUP4 SSTORE POP JUMPDEST PUSH1 0x1 PUSH1 0x2 DUP9 MUL ADD DUP9 SSTORE POP POP POP JUMPDEST POP POP POP POP POP POP JUMP JUMPDEST PUSH32 0x4E487B7100000000000000000000000000000000000000000000000000000000 PUSH0 MSTORE PUSH1 0x11 PUSH1 0x4 MSTORE PUSH1 0x24 PUSH0 REVERT JUMPDEST PUSH0 PUSH2 0x1117 DUP3 PUSH2 0x952 JUMP JUMPDEST SWAP2 POP PUSH32 0xFFFFFFFFFFFFFFFFFFFFFFFFFFFFFFFFFFFFFFFFFFFFFFFFFFFFFFFFFFFFFFFF DUP3 SUB PUSH2 0x1149 JUMPI PUSH2 0x1148 PUSH2 0x10E0 JUMP JUMPDEST JUMPDEST PUSH1 0x1 DUP3 ADD SWAP1 POP SWAP2 SWAP1 POP JUMP JUMPDEST PUSH32 0x54686973206576656E7420646F6573206E6F7420657869747321000000000000 PUSH0 DUP3 ADD MSTORE POP JUMP JUMPDEST PUSH0 PUSH2 0x1188 PUSH1 0x1A DUP4 PUSH2 0xA79 JUMP JUMPDEST SWAP2 POP PUSH2 0x1193 DUP3 PUSH2 0x1154 JUMP JUMPDEST PUSH1 0x20 DUP3 ADD SWAP1 POP SWAP2 SWAP1 POP JUMP JUMPDEST PUSH0 PUSH1 0x20 DUP3 ADD SWAP1 POP DUP2 DUP2 SUB PUSH0 DUP4 ADD MSTORE PUSH2 0x11B5 DUP2 PUSH2 0x117C JUMP JUMPDEST SWAP1 POP SWAP2 SWAP1 POP JUMP JUMPDEST PUSH32 0x536F727279212054686973206576656E742068617320656E6465642100000000 PUSH0 DUP3 ADD MSTORE POP JUMP JUMPDEST PUSH0 PUSH2 0x11F0 PUSH1 0x1C DUP4 PUSH2 0xA79 JUMP JUMPDEST SWAP2 POP PUSH2 0x11FB DUP3 PUSH2 0x11BC JUMP JUMPDEST PUSH1 0x20 DUP3 ADD SWAP1 POP SWAP2 SWAP1 POP JUMP JUMPDEST PUSH0 PUSH1 0x20 DUP3 ADD SWAP1 POP DUP2 DUP2 SUB PUSH0 DUP4 ADD MSTORE PUSH2 0x121D DUP2 PUSH2 0x11E4 JUMP JUMPDEST SWAP1 POP SWAP2 SWAP1 POP JUMP JUMPDEST PUSH32 0x596F7520646F206E6F74206861766520656E6F756768207469636B6574732074 PUSH0 DUP3 ADD MSTORE PUSH32 0x6F207472616E7366657221000000000000000000000000000000000000000000 PUSH1 0x20 DUP3 ADD MSTORE POP JUMP JUMPDEST PUSH0 PUSH2 0x127E PUSH1 0x2B DUP4 PUSH2 0xA79 JUMP JUMPDEST SWAP2 POP PUSH2 0x1289 DUP3 PUSH2 0x1224 JUMP JUMPDEST PUSH1 0x40 DUP3 ADD SWAP1 POP SWAP2 SWAP1 POP JUMP JUMPDEST PUSH0 PUSH1 0x20 DUP3 ADD SWAP1 POP DUP2 DUP2 SUB PUSH0 DUP4 ADD MSTORE PUSH2 0x12AB DUP2 PUSH2 0x1272 JUMP JUMPDEST SWAP1 POP SWAP2 SWAP1 POP JUMP JUMPDEST PUSH0 PUSH2 0x12BC DUP3 PUSH2 0x952 JUMP JUMPDEST SWAP2 POP PUSH2 0x12C7 DUP4 PUSH2 0x952 JUMP JUMPDEST SWAP3 POP DUP3 DUP3 SUB SWAP1 POP DUP2 DUP2 GT ISZERO PUSH2 0x12DF JUMPI PUSH2 0x12DE PUSH2 0x10E0 JUMP JUMPDEST JUMPDEST SWAP3 SWAP2 POP POP JUMP JUMPDEST PUSH0 PUSH2 0x12EF DUP3 PUSH2 0x952 JUMP JUMPDEST SWAP2 POP PUSH2 0x12FA DUP4 PUSH2 0x952 JUMP JUMPDEST SWAP3 POP DUP3 DUP3 ADD SWAP1 POP DUP1 DUP3 GT ISZERO PUSH2 0x1312 JUMPI PUSH2 0x1311 PUSH2 0x10E0 JUMP JUMPDEST JUMPDEST SWAP3 SWAP2 POP POP JUMP JUMPDEST PUSH0 PUSH2 0x1322 DUP3 PUSH2 0x952 JUMP JUMPDEST SWAP2 POP PUSH2 0x132D DUP4 PUSH2 0x952 JUMP JUMPDEST SWAP3 POP DUP3 DUP3 MUL PUSH2 0x133B DUP2 PUSH2 0x952 JUMP JUMPDEST SWAP2 POP DUP3 DUP3 DIV DUP5 EQ DUP4 ISZERO OR PUSH2 0x1352 JUMPI PUSH2 0x1351 PUSH2 0x10E0 JUMP JUMPDEST JUMPDEST POP SWAP3 SWAP2 POP POP JUMP JUMPDEST PUSH32 0x496E73756666696369656E742045746865722100000000000000000000000000 PUSH0 DUP3 ADD MSTORE POP JUMP JUMPDEST PUSH0 PUSH2 0x138D PUSH1 0x13 DUP4 PUSH2 0xA79 JUMP JUMPDEST SWAP2 POP PUSH2 0x1398 DUP3 PUSH2 0x1359 JUMP JUMPDEST PUSH1 0x20 DUP3 ADD SWAP1 POP SWAP2 SWAP1 POP JUMP JUMPDEST PUSH0 PUSH1 0x20 DUP3 ADD SWAP1 POP DUP2 DUP2 SUB PUSH0 DUP4 ADD MSTORE PUSH2 0x13BA DUP2 PUSH2 0x1381 JUMP JUMPDEST SWAP1 POP SWAP2 SWAP1 POP JUMP JUMPDEST PUSH32 0x536F72727921205469636B657473206E6F7420617661696C61626C6521000000 PUSH0 DUP3 ADD MSTORE POP JUMP JUMPDEST PUSH0 PUSH2 0x13F5 PUSH1 0x1D DUP4 PUSH2 0xA79 JUMP JUMPDEST SWAP2 POP PUSH2 0x1400 DUP3 PUSH2 0x13C1 JUMP JUMPDEST PUSH1 0x20 DUP3 ADD SWAP1 POP SWAP2 SWAP1 POP JUMP JUMPDEST PUSH0 PUSH1 0x20 DUP3 ADD SWAP1 POP DUP2 DUP2 SUB PUSH0 DUP4 ADD MSTORE PUSH2 0x1422 DUP2 PUSH2 0x13E9 JUMP JUMPDEST SWAP1 POP SWAP2 SWAP1 POP JUMP INVALID LOG2 PUSH5 0x6970667358 0x22 SLT KECCAK256 PUSH15 0xEF7CDAF5F6B12D9973CC196A82D621 DUP4 0x4E DUP4 0xFC 0xEF SWAP2 DUP9 CALLER GASPRICE 0xB2 DUP8 KECCAK256 SWAP6 PUSH20 0xDC6264736F6C6343000816003300000000000000 "
				},
				"gasEstimates": {
					"creation": {
						"codeDepositCost": "1043000",
						"executionCost": "1078",
						"totalCost": "1044078"
					},
					"external": {
						"buyTickets(uint256,uint256)": "infinite",
						"createEvent(string,uint256,uint256,uint256)": "infinite",
						"events(uint256)": "infinite",
						"nextId()": "2469",
						"tickets(address,uint256)": "infinite",
						"transferTickets(uint256,uint256,address)": "infinite"
					}
				},
				"methodIdentifiers": {
					"buyTickets(uint256,uint256)": "8627df46",
					"createEvent(string,uint256,uint256,uint256)": "0374ab0b",
					"events(uint256)": "0b791430",
					"nextId()": "61b8ce8c",
					"tickets(address,uint256)": "dae7a13c",
					"transferTickets(uint256,uint256,address)": "3d23eed9"
				}
			},
			"storageLayout": {
				"storage": [
					{
						"astId": 19,
						"contract": "event-organization/Event.sol:EventContract",
						"label": "events",
						"offset": 0,
						"slot": "0",
						"type": "t_mapping(t_uint256,t_struct(Event)14_storage)"
					},
					{
						"astId": 25,
						"contract": "event-organization/Event.sol:EventContract",
						"label": "tickets",
						"offset": 0,
						"slot": "1",
						"type": "t_mapping(t_address,t_mapping(t_uint256,t_uint256))"
					},
					{
						"astId": 27,
						"contract": "event-organization/Event.sol:EventContract",
						"label": "nextId",
						"offset": 0,
						"slot": "2",
						"type": "t_uint256"
					}
				],
				"types": {
					"t_address": {
						"encoding": "inplace",
						"label": "address",
						"numberOfBytes": "20"
					},
					"t_mapping(t_address,t_mapping(t_uint256,t_uint256))": {
						"encoding": "mapping",
						"key": "t_address",
						"label": "mapping(address => mapping(uint256 => uint256))",
						"numberOfBytes": "32",
						"value": "t_mapping(t_uint256,t_uint256)"
					},
					"t_mapping(t_uint256,t_struct(Event)14_storage)": {
						"encoding": "mapping",
						"key": "t_uint256",
						"label": "mapping(uint256 => struct EventContract.Event)",
						"numberOfBytes": "32",
						"value": "t_struct(Event)14_storage"
					},
					"t_mapping(t_uint256,t_uint256)": {
						"encoding": "mapping",
						"key": "t_uint256",
						"label": "mapping(uint256 => uint256)",
						"numberOfBytes": "32",
						"value": "t_uint256"
					},
					"t_string_storage": {
						"encoding": "bytes",
						"label": "string",
						"numberOfBytes": "32"
					},
					"t_struct(Event)14_storage": {
						"encoding": "inplace",
						"label": "struct EventContract.Event",
						"members": [
							{
								"astId": 3,
								"contract": "event-organization/Event.sol:EventContract",
								"label": "organizer",
								"offset": 0,
								"slot": "0",
								"type": "t_address"
							},
							{
								"astId": 5,
								"contract": "event-organization/Event.sol:EventContract",
								"label": "eventName",
								"offset": 0,
								"slot": "1",
								"type": "t_string_storage"
							},
							{
								"astId": 7,
								"contract": "event-organization/Event.sol:EventContract",
								"label": "date",
								"offset": 0,
								"slot": "2",
								"type": "t_uint256"
							},
							{
								"astId": 9,
								"contract": "event-organization/Event.sol:EventContract",
								"label": "ticketPrice",
								"offset": 0,
								"slot": "3",
								"type": "t_uint256"
							},
							{
								"astId": 11,
								"contract": "event-organization/Event.sol:EventContract",
								"label": "totalTickets",
								"offset": 0,
								"slot": "4",
								"type": "t_uint256"
							},
							{
								"astId": 13,
								"contract": "event-organization/Event.sol:EventContract",
								"label": "remainingTickets",
								"offset": 0,
								"slot": "5",
								"type": "t_uint256"
							}
						],
						"numberOfBytes": "192"
					},
					"t_uint256": {
						"encoding": "inplace",
						"label": "uint256",
						"numberOfBytes": "32"
					}
				}
			},
			"userdoc": {
				"kind": "user",
				"methods": {},
				"version": 1
			}
		}
	}
}